Component: ARM Compiler 5.05 update 1 (build 106) Tool: armlink [4d0efa]

==============================================================================

Section Cross References

    main.o(.text) refers to delay.o(.text) for delay_init
    main.o(.text) refers to myiic.o(.text) for MYIIC_InitGPIO
    main.o(.text) refers to oled.o(.text) for OLED_Init
    main.o(.text) refers to gui.o(.text) for GUI_ClearMap
    main.o(.text) refers to test.o(.text) for TEST_ShowLine
    main.o(.text) refers to main.o(.constdata) for PIG1
    test.o(.text) refers to gui.o(.text) for GUI_ShowBMP
    test.o(.text) refers to fflt_clz.o(x$fpl$fflt) for __aeabi_i2f
    test.o(.text) refers to faddsub_clz.o(x$fpl$fadd) for __aeabi_fadd
    test.o(.text) refers to ffix.o(x$fpl$ffix) for __aeabi_f2iz
    test.o(.text) refers to delay.o(.text) for delay_ms
    test.o(.text) refers to fflt_clz.o(x$fpl$ffltu) for __aeabi_ui2f
    test.o(.text) refers to menu.o(.text) for MENU_InitMenu
    test.o(.text) refers to test.o(.constdata) for Pic1
    test.o(.text) refers to fdiv.o(x$fpl$fdiv) for __aeabi_fdiv
    test.o(.text) refers to dflt_clz.o(x$fpl$dflt) for __aeabi_i2d
    test.o(.text) refers to ddiv.o(x$fpl$ddiv) for __aeabi_ddiv
    test.o(.text) refers to d2f.o(x$fpl$d2f) for __aeabi_d2f
==============================================================================

Removing Unused input sections from the image.

    Removing sys.o(.text), (12 bytes).
    Removing core_cm3.o(.emb_text), (32 bytes).

2 unused section(s) (total 44 bytes) removed from the image.

==============================================================================

Image Symbol Table

    Local Symbols

    Symbol Name                              Value     Ov Type        Size  Object(Section)

    ../clib/angel/boardlib.s                 0x00000000   Number         0  boardinit1.o ABSOLUTE
    ../clib/angel/boardlib.s                 0x00000000   Number         0  boardshut.o ABSOLUTE
    ../clib/angel/boardlib.s                 0x00000000   Number         0  boardinit3.o ABSOLUTE
    ../clib/angel/boardlib.s                 0x00000000   Number         0  boardinit2.o ABSOLUTE
    ../clib/angel/handlers.s                 0x00000000   Number         0  __scatter_zi.o ABSOLUTE
    ../clib/angel/handlers.s                 0x00000000   Number         0  __scatter_copy.o ABSOLUTE
    ../clib/angel/kernel.s                   0x00000000   Number         0  __rtentry4.o ABSOLUTE
    ../clib/angel/kernel.s                   0x00000000   Number         0  __rtentry2.o ABSOLUTE
    ../clib/angel/kernel.s                   0x00000000   Number         0  rtexit.o ABSOLUTE
    ../clib/angel/kernel.s                   0x00000000   Number         0  rtexit2.o ABSOLUTE
    ../clib/angel/kernel.s                   0x00000000   Number         0  __rtentry.o ABSOLUTE
    ../clib/angel/rt.s                       0x00000000   Number         0  rt_raise.o ABSOLUTE
    ../clib/angel/scatter.s                  0x00000000   Number         0  __scatter.o ABSOLUTE
    ../clib/angel/startup.s                  0x00000000   Number         0  __main.o ABSOLUTE
    ../clib/angel/sys.s                      0x00000000   Number         0  sys_stackheap_outer.o ABSOLUTE
    ../clib/angel/sys.s                      0x00000000   Number         0  indicate_semi.o ABSOLUTE
    ../clib/angel/sys.s                      0x00000000   Number         0  use_no_semi_2.o ABSOLUTE
    ../clib/angel/sys.s                      0x00000000   Number         0  use_no_semi.o ABSOLUTE
    ../clib/angel/sys.s                      0x00000000   Number         0  libspace.o ABSOLUTE
    ../clib/angel/sysapp.c                   0x00000000   Number         0  sys_command.o ABSOLUTE
    ../clib/angel/sysapp.c                   0x00000000   Number         0  sys_wrch.o ABSOLUTE
    ../clib/armsys.c                         0x00000000   Number         0  argv_veneer.o ABSOLUTE
    ../clib/armsys.c                         0x00000000   Number         0  argv_veneer.o ABSOLUTE
    ../clib/armsys.c                         0x00000000   Number         0  _get_argv_nomalloc.o ABSOLUTE
    ../clib/armsys.c                         0x00000000   Number         0  no_argv.o ABSOLUTE
    ../clib/heapalloc.c                      0x00000000   Number         0  hrguard.o ABSOLUTE
    ../clib/heapaux.c                        0x00000000   Number         0  heapauxi.o ABSOLUTE
    ../clib/libinit.s                        0x00000000   Number         0  libshutdown.o ABSOLUTE
    ../clib/libinit.s                        0x00000000   Number         0  libshutdown2.o ABSOLUTE
    ../clib/libinit.s                        0x00000000   Number         0  libinit2.o ABSOLUTE
    ../clib/libinit.s                        0x00000000   Number         0  libinit.o ABSOLUTE
    ../clib/signal.c                         0x00000000   Number         0  defsig_rtred_inner.o ABSOLUTE
    ../clib/signal.c                         0x00000000   Number         0  defsig_exit.o ABSOLUTE
    ../clib/signal.c                         0x00000000   Number         0  defsig_rtmem_inner.o ABSOLUTE
    ../clib/signal.c                         0x00000000   Number         0  __raise.o ABSOLUTE
    ../clib/signal.c                         0x00000000   Number         0  defsig_abrt_inner.o ABSOLUTE
    ../clib/signal.c                         0x00000000   Number         0  defsig_general.o ABSOLUTE
    ../clib/signal.c                         0x00000000   Number         0  defsig_rtmem_outer.o ABSOLUTE
    ../clib/signal.c                         0x00000000   Number         0  defsig_rtmem_formal.o ABSOLUTE
    ../clib/signal.c                         0x00000000   Number         0  defsig_cppl_inner.o ABSOLUTE
    ../clib/signal.c                         0x00000000   Number         0  defsig_other.o ABSOLUTE
    ../clib/signal.c                         0x00000000   Number         0  defsig_segv_inner.o ABSOLUTE
    ../clib/signal.c                         0x00000000   Number         0  defsig_pvfn_inner.o ABSOLUTE
    ../clib/signal.c                         0x00000000   Number         0  defsig_stak_inner.o ABSOLUTE
    ../clib/signal.c                         0x00000000   Number         0  defsig_fpe_inner.o ABSOLUTE
    ../clib/signal.s                         0x00000000   Number         0  defsig.o ABSOLUTE
    ../clib/stdlib.c                         0x00000000   Number         0  exit.o ABSOLUTE
    ../clib/string.c                         0x00000000   Number         0  strlen.o ABSOLUTE
    ../fplib/d2f.s                           0x00000000   Number         0  d2f.o ABSOLUTE
    ../fplib/dcmpi.s                         0x00000000   Number         0  dcmpi.o ABSOLUTE
    ../fplib/ddiv.s                          0x00000000   Number         0  ddiv.o ABSOLUTE
    ../fplib/dflt.s                          0x00000000   Number         0  dflt_clz.o ABSOLUTE
    ../fplib/dleqf.s                         0x00000000   Number         0  dleqf.o ABSOLUTE
    ../fplib/dnaninf.s                       0x00000000   Number         0  dnaninf.o ABSOLUTE
    ../fplib/dretinf.s                       0x00000000   Number         0  dretinf.o ABSOLUTE
    ../fplib/drleqf.s                        0x00000000   Number         0  drleqf.o ABSOLUTE
    ../fplib/f2d.s                           0x00000000   Number         0  f2d.o ABSOLUTE
    ../fplib/faddsub.s                       0x00000000   Number         0  faddsub_clz.o ABSOLUTE
    ../fplib/fcmpi.s                         0x00000000   Number         0  fcmpi.o ABSOLUTE
    ../fplib/fdiv.s                          0x00000000   Number         0  fdiv.o ABSOLUTE
    ../fplib/ffix.s                          0x00000000   Number         0  ffix.o ABSOLUTE
    ../fplib/fflt.s                          0x00000000   Number         0  fflt_clz.o ABSOLUTE
    ../fplib/fleqf.s                         0x00000000   Number         0  fleqf.o ABSOLUTE
    ../fplib/fmul.s                          0x00000000   Number         0  fmul.o ABSOLUTE
    ../fplib/fnaninf.s                       0x00000000   Number         0  fnaninf.o ABSOLUTE
    ../fplib/fpinit.s                        0x00000000   Number         0  fpinit.o ABSOLUTE
    ../fplib/fretinf.s                       0x00000000   Number         0  fretinf.o ABSOLUTE
    ../fplib/frleqf.s                        0x00000000   Number         0  frleqf.o ABSOLUTE
    ../fplib/usenofp.s                       0x00000000   Number         0  usenofp.o ABSOLUTE
    ..\CORE\core_cm3.c                       0x00000000   Number         0  core_cm3.o ABSOLUTE
    ..\CORE\startup_stm32f10x_hd.s           0x00000000   Number         0  startup_stm32f10x_hd.o ABSOLUTE
    ..\HARDWARE\MENU\menu.c                  0x00000000   Number         0  menu.o ABSOLUTE
    ..\HARDWARE\MYIIC\myiic.c                0x00000000   Number         0  myiic.o ABSOLUTE
    ..\HARDWARE\MYMATH\mymath.c              0x00000000   Number         0  mymath.o ABSOLUTE
    ..\HARDWARE\OLED\gui.c                   0x00000000   Number         0  gui.o ABSOLUTE
    ..\HARDWARE\OLED\oled.c                  0x00000000   Number         0  oled.o ABSOLUTE
    ..\STM32F10x_FWLib\src\misc.c            0x00000000   Number         0  misc.o ABSOLUTE
    ..\STM32F10x_FWLib\src\stm32f10x_gpio.c  0x00000000   Number         0  stm32f10x_gpio.o ABSOLUTE
    ..\STM32F10x_FWLib\src\stm32f10x_it.c    0x00000000   Number         0  stm32f10x_it.o ABSOLUTE
    ..\STM32F10x_FWLib\src\stm32f10x_rcc.c   0x00000000   Number         0  stm32f10x_rcc.o ABSOLUTE
    ..\STM32F10x_FWLib\src\stm32f10x_usart.c 0x00000000   Number         0  stm32f10x_usart.o ABSOLUTE
    ..\SYSTEM\delay\delay.c                  0x00000000   Number         0  delay.o ABSOLUTE
    ..\SYSTEM\sys\sys.c                      0x00000000   Number         0  sys.o ABSOLUTE
    ..\SYSTEM\system_stm32f10x\system_stm32f10x.c 0x00000000   Number         0  system_stm32f10x.o ABSOLUTE
    ..\SYSTEM\usart\usart.c                  0x00000000   Number         0  usart.o ABSOLUTE
    ..\\CORE\\core_cm3.c                     0x00000000   Number         0  core_cm3.o ABSOLUTE
    dc.s                                     0x00000000   Number         0  dc.o ABSOLUTE
    main.c                                   0x00000000   Number         0  main.o ABSOLUTE
    test.c                                   0x00000000   Number         0  test.o ABSOLUTE
    RESET                                    0x08000000   Section      304  startup_stm32f10x_hd.o(RESET)
    !!!main                                  0x08000130   Section        8  __main.o(!!!main)
    !!!scatter                               0x08000138   Section       52  __scatter.o(!!!scatter)
    !!handler_copy                           0x0800016c   Section       26  __scatter_copy.o(!!handler_copy)
    !!handler_zi                             0x08000188   Section       28  __scatter_zi.o(!!handler_zi)
    .ARM.Collect$$libinit$$00000000          0x080001a4   Section        2  libinit.o(.ARM.Collect$$libinit$$00000000)
    .ARM.Collect$$libinit$$00000002          0x080001a6   Section        0  libinit2.o(.ARM.Collect$$libinit$$00000002)
    .ARM.Collect$$libinit$$00000004          0x080001a6   Section        0  libinit2.o(.ARM.Collect$$libinit$$00000004)
    .ARM.Collect$$libinit$$0000000A          0x080001a6   Section        0  libinit2.o(.ARM.Collect$$libinit$$0000000A)
    .ARM.Collect$$libinit$$0000000C          0x080001a6   Section        0  libinit2.o(.ARM.Collect$$libinit$$0000000C)
    .ARM.Collect$$libinit$$0000000E          0x080001a6   Section        0  libinit2.o(.ARM.Collect$$libinit$$0000000E)
    .ARM.Collect$$libinit$$00000011          0x080001a6   Section        0  libinit2.o(.ARM.Collect$$libinit$$00000011)
    .ARM.Collect$$libinit$$00000013          0x080001a6   Section        0  libinit2.o(.ARM.Collect$$libinit$$00000013)
    .ARM.Collect$$libinit$$00000015          0x080001a6   Section        0  libinit2.o(.ARM.Collect$$libinit$$00000015)
    .ARM.Collect$$libinit$$00000017          0x080001a6   Section        0  libinit2.o(.ARM.Collect$$libinit$$00000017)
    .ARM.Collect$$libinit$$00000019          0x080001a6   Section        0  libinit2.o(.ARM.Collect$$libinit$$00000019)
    .ARM.Collect$$libinit$$0000001B          0x080001a6   Section        0  libinit2.o(.ARM.Collect$$libinit$$0000001B)
    .ARM.Collect$$libinit$$0000001D          0x080001a6   Section        0  libinit2.o(.ARM.Collect$$libinit$$0000001D)
    .ARM.Collect$$libinit$$0000001F          0x080001a6   Section        0  libinit2.o(.ARM.Collect$$libinit$$0000001F)
    .ARM.Collect$$libinit$$00000021          0x080001a6   Section        0  libinit2.o(.ARM.Collect$$libinit$$00000021)
    .ARM.Collect$$libinit$$00000023          0x080001a6   Section        0  libinit2.o(.ARM.Collect$$libinit$$00000023)
    .ARM.Collect$$libinit$$00000025          0x080001a6   Section        0  libinit2.o(.ARM.Collect$$libinit$$00000025)
    .ARM.Collect$$libinit$$0000002C          0x080001a6   Section        0  libinit2.o(.ARM.Collect$$libinit$$0000002C)
    .ARM.Collect$$libinit$$0000002E          0x080001a6   Section        0  libinit2.o(.ARM.Collect$$libinit$$0000002E)
    .ARM.Collect$$libinit$$00000030          0x080001a6   Section        0  libinit2.o(.ARM.Collect$$libinit$$00000030)
    .ARM.Collect$$libinit$$00000032          0x080001a6   Section        0  libinit2.o(.ARM.Collect$$libinit$$00000032)
    .ARM.Collect$$libinit$$00000033          0x080001a6   Section        2  libinit2.o(.ARM.Collect$$libinit$$00000033)
    .ARM.Collect$$libshutdown$$00000000      0x080001a8   Section        2  libshutdown.o(.ARM.Collect$$libshutdown$$00000000)
    .ARM.Collect$$libshutdown$$00000003      0x080001aa   Section        0  libshutdown2.o(.ARM.Collect$$libshutdown$$00000003)
    .ARM.Collect$$libshutdown$$00000006      0x080001aa   Section        0  libshutdown2.o(.ARM.Collect$$libshutdown$$00000006)
    .ARM.Collect$$libshutdown$$00000009      0x080001aa   Section        0  libshutdown2.o(.ARM.Collect$$libshutdown$$00000009)
    .ARM.Collect$$libshutdown$$0000000B      0x080001aa   Section        0  libshutdown2.o(.ARM.Collect$$libshutdown$$0000000B)
    .ARM.Collect$$libshutdown$$0000000E      0x080001aa   Section        0  libshutdown2.o(.ARM.Collect$$libshutdown$$0000000E)
    .ARM.Collect$$libshutdown$$0000000F      0x080001aa   Section        2  libshutdown2.o(.ARM.Collect$$libshutdown$$0000000F)
    .ARM.Collect$$rtentry$$00000000          0x080001ac   Section        0  __rtentry.o(.ARM.Collect$$rtentry$$00000000)
    .ARM.Collect$$rtentry$$00000002          0x080001ac   Section        0  __rtentry2.o(.ARM.Collect$$rtentry$$00000002)
    .ARM.Collect$$rtentry$$00000004          0x080001ac   Section        6  __rtentry4.o(.ARM.Collect$$rtentry$$00000004)
    .ARM.Collect$$rtentry$$00000009          0x080001b2   Section        0  __rtentry2.o(.ARM.Collect$$rtentry$$00000009)
    .ARM.Collect$$rtentry$$0000000A          0x080001b2   Section        4  __rtentry2.o(.ARM.Collect$$rtentry$$0000000A)
    .ARM.Collect$$rtentry$$0000000C          0x080001b6   Section        0  __rtentry2.o(.ARM.Collect$$rtentry$$0000000C)
    .ARM.Collect$$rtentry$$0000000D          0x080001b6   Section        8  __rtentry2.o(.ARM.Collect$$rtentry$$0000000D)
    .ARM.Collect$$rtexit$$00000000           0x080001be   Section        2  rtexit.o(.ARM.Collect$$rtexit$$00000000)
    .ARM.Collect$$rtexit$$00000002           0x080001c0   Section        0  rtexit2.o(.ARM.Collect$$rtexit$$00000002)
    .ARM.Collect$$rtexit$$00000003           0x080001c0   Section        4  rtexit2.o(.ARM.Collect$$rtexit$$00000003)
    .ARM.Collect$$rtexit$$00000004           0x080001c4   Section        6  rtexit2.o(.ARM.Collect$$rtexit$$00000004)
    .text                                    0x080001cc   Section        0  main.o(.text)
    .text                                    0x08000248   Section        0  test.o(.text)
    .text                                    0x080008d8   Section        0  oled.o(.text)
    .text                                    0x08000b6c   Section        0  mymath.o(.text)
    .text                                    0x08000d58   Section        0  menu.o(.text)
    .text                                    0x08001180   Section        0  myiic.o(.text)
    .text                                    0x080013bc   Section        0  gui.o(.text)
    .text                                    0x08002b44   Section        0  delay.o(.text)
    .text                                    0x08002c18   Section        0  usart.o(.text)
    .text                                    0x08002d58   Section        0  system_stm32f10x.o(.text)
    SetSysClockTo72                          0x08002d59   Thumb Code   214  system_stm32f10x.o(.text)
    SetSysClock                              0x08002e2f   Thumb Code     8  system_stm32f10x.o(.text)
    .text                                    0x08002f38   Section       64  startup_stm32f10x_hd.o(.text)
    .text                                    0x08002f78   Section        0  misc.o(.text)
    .text                                    0x08003054   Section        0  stm32f10x_gpio.o(.text)
    .text                                    0x080033b0   Section        0  stm32f10x_rcc.o(.text)
    .text                                    0x08003754   Section        0  stm32f10x_usart.o(.text)
    .text                                    0x08003b5c   Section        0  stm32f10x_it.o(.text)
    .text                                    0x08003b76   Section        2  use_no_semi_2.o(.text)
    .text                                    0x08003b78   Section        0  strlen.o(.text)
    .text                                    0x08003bb6   Section        0  heapauxi.o(.text)
    .text                                    0x08003bbc   Section        2  use_no_semi.o(.text)
    .text                                    0x08003bbe   Section       74  sys_stackheap_outer.o(.text)
    .text                                    0x08003c08   Section        0  exit.o(.text)
    .text                                    0x08003c14   Section        8  libspace.o(.text)
    x$fpl$d2f                                0x08003c1c   Section       98  d2f.o(x$fpl$d2f)
    x$fpl$dcmpinf                            0x08003c7e   Section       24  dcmpi.o(x$fpl$dcmpinf)
    x$fpl$ddiv                               0x08003c98   Section      688  ddiv.o(x$fpl$ddiv)
    ddiv_entry                               0x08003c9f   Thumb Code     0  ddiv.o(x$fpl$ddiv)
    x$fpl$dflt                               0x08003f48   Section       46  dflt_clz.o(x$fpl$dflt)
    x$fpl$dfltu                              0x08003f76   Section       38  dflt_clz.o(x$fpl$dfltu)
    x$fpl$dleqf                              0x08003f9c   Section      120  dleqf.o(x$fpl$dleqf)
    x$fpl$dnaninf                            0x08004014   Section      156  dnaninf.o(x$fpl$dnaninf)
    x$fpl$dretinf                            0x080040b0   Section       12  dretinf.o(x$fpl$dretinf)
    x$fpl$drleqf                             0x080040bc   Section      108  drleqf.o(x$fpl$drleqf)
    x$fpl$f2d                                0x08004128   Section       86  f2d.o(x$fpl$f2d)
    x$fpl$fadd                               0x08004180   Section      196  faddsub_clz.o(x$fpl$fadd)
    _fadd1                                   0x0800418f   Thumb Code     0  faddsub_clz.o(x$fpl$fadd)
    x$fpl$fcmpinf                            0x08004244   Section       24  fcmpi.o(x$fpl$fcmpinf)
    x$fpl$fdiv                               0x0800425c   Section      388  fdiv.o(x$fpl$fdiv)
    _fdiv1                                   0x0800425d   Thumb Code     0  fdiv.o(x$fpl$fdiv)
    x$fpl$ffix                               0x080043e0   Section       54  ffix.o(x$fpl$ffix)
    x$fpl$fflt                               0x08004418   Section       48  fflt_clz.o(x$fpl$fflt)
    x$fpl$ffltu                              0x08004448   Section       38  fflt_clz.o(x$fpl$ffltu)
    x$fpl$fleqf                              0x08004470   Section      104  fleqf.o(x$fpl$fleqf)
    x$fpl$fmul                               0x080044d8   Section      258  fmul.o(x$fpl$fmul)
    x$fpl$fnaninf                            0x080045da   Section      140  fnaninf.o(x$fpl$fnaninf)
    x$fpl$fretinf                            0x08004666   Section       10  fretinf.o(x$fpl$fretinf)
    x$fpl$frleqf                             0x08004670   Section       98  frleqf.o(x$fpl$frleqf)
    x$fpl$frsb                               0x080046d2   Section       20  faddsub_clz.o(x$fpl$frsb)
    x$fpl$fsub                               0x080046e8   Section      234  faddsub_clz.o(x$fpl$fsub)
    _fsub1                                   0x080046f7   Thumb Code     0  faddsub_clz.o(x$fpl$fsub)
    .constdata                               0x080047d2   Section      240  main.o(.constdata)
    x$fpl$usenofp                            0x080047d2   Section        0  usenofp.o(x$fpl$usenofp)
    .constdata                               0x080048c2   Section      376  test.o(.constdata)
    .constdata                               0x08004a3c   Section      724  mymath.o(.constdata)
    .constdata                               0x08004d10   Section     2072  gui.o(.constdata)
    .data                                    0x20000000   Section       12  menu.o(.data)
    .data                                    0x2000000c   Section      192  gui.o(.data)
    .data                                    0x200000cc   Section        4  delay.o(.data)
    fac_us                                   0x200000cc   Data           1  delay.o(.data)
    fac_ms                                   0x200000ce   Data           2  delay.o(.data)
    .data                                    0x200000d0   Section        6  usart.o(.data)
    .data                                    0x200000d8   Section       20  system_stm32f10x.o(.data)
    .data                                    0x200000ec   Section       20  stm32f10x_rcc.o(.data)
    APBAHBPrescTable                         0x200000ec   Data          16  stm32f10x_rcc.o(.data)
    ADCPrescTable                            0x200000fc   Data           4  stm32f10x_rcc.o(.data)
    .bss                                     0x20000100   Section     1052  gui.o(.bss)
    .bss                                     0x2000051c   Section      200  usart.o(.bss)
    .bss                                     0x200005e4   Section       96  libspace.o(.bss)
    HEAP                                     0x20000648   Section      512  startup_stm32f10x_hd.o(HEAP)
    Heap_Mem                                 0x20000648   Data         512  startup_stm32f10x_hd.o(HEAP)
    STACK                                    0x20000848   Section     1024  startup_stm32f10x_hd.o(STACK)
    Stack_Mem                                0x20000848   Data        1024  startup_stm32f10x_hd.o(STACK)
    __initial_sp                             0x20000c48   Data           0  startup_stm32f10x_hd.o(STACK)

    Global Symbols

    Symbol Name                              Value     Ov Type        Size  Object(Section)

    BuildAttributes$$THM_ISAv4$P$D$K$B$S$PE$A:L22UL41UL21$X:L11$S22US41US21$IEEE1$IW$USESV6$~STKCKD$USESV7$~SHL$OSPACE$ROPI$EBA8$UX$STANDARDLIB$REQ8$PRES8$EABIv2 0x00000000   Number         0  anon$$obj.o ABSOLUTE
    __ARM_use_no_argv                        0x00000000   Number         0  main.o ABSOLUTE
    __ARM_exceptions_init                     - Undefined Weak Reference
    __alloca_initialize                       - Undefined Weak Reference
    __arm_preinit_                            - Undefined Weak Reference
    __cpp_initialize__aeabi_                  - Undefined Weak Reference
    __cxa_finalize                            - Undefined Weak Reference
    __rt_locale                               - Undefined Weak Reference
    __sigvec_lookup                           - Undefined Weak Reference
    _atexit_init                              - Undefined Weak Reference
    _call_atexit_fns                          - Undefined Weak Reference
    _clock_init                               - Undefined Weak Reference
    _fp_trap_init                             - Undefined Weak Reference
    _fp_trap_shutdown                         - Undefined Weak Reference
    _get_lc_collate                           - Undefined Weak Reference
    _get_lc_ctype                             - Undefined Weak Reference
    _get_lc_monetary                          - Undefined Weak Reference
    _get_lc_numeric                           - Undefined Weak Reference
    _get_lc_time                              - Undefined Weak Reference
    _getenv_init                              - Undefined Weak Reference
    _handle_redirection                       - Undefined Weak Reference
    _init_alloc                               - Undefined Weak Reference
    _init_user_alloc                          - Undefined Weak Reference
    _initio                                   - Undefined Weak Reference
    _rand_init                                - Undefined Weak Reference
    _signal_finish                            - Undefined Weak Reference
    _signal_init                              - Undefined Weak Reference
    _terminate_alloc                          - Undefined Weak Reference
    _terminate_user_alloc                     - Undefined Weak Reference
    _terminateio                              - Undefined Weak Reference
    __Vectors_Size                           0x00000130   Number         0  startup_stm32f10x_hd.o ABSOLUTE
    __Vectors                                0x08000000   Data           4  startup_stm32f10x_hd.o(RESET)
    __Vectors_End                            0x08000130   Data           0  startup_stm32f10x_hd.o(RESET)
    __main                                   0x08000131   Thumb Code     8  __main.o(!!!main)
    __scatterload                            0x08000139   Thumb Code     0  __scatter.o(!!!scatter)
    __scatterload_rt2                        0x08000139   Thumb Code    44  __scatter.o(!!!scatter)
    __scatterload_rt2_thumb_only             0x08000139   Thumb Code     0  __scatter.o(!!!scatter)
    __scatterload_null                       0x08000147   Thumb Code     0  __scatter.o(!!!scatter)
    __scatterload_copy                       0x0800016d   Thumb Code    26  __scatter_copy.o(!!handler_copy)
    __scatterload_zeroinit                   0x08000189   Thumb Code    28  __scatter_zi.o(!!handler_zi)
    __rt_lib_init                            0x080001a5   Thumb Code     0  libinit.o(.ARM.Collect$$libinit$$00000000)
    __rt_lib_init_alloca_1                   0x080001a7   Thumb Code     0  libinit2.o(.ARM.Collect$$libinit$$0000002E)
    __rt_lib_init_argv_1                     0x080001a7   Thumb Code     0  libinit2.o(.ARM.Collect$$libinit$$0000002C)
    __rt_lib_init_atexit_1                   0x080001a7   Thumb Code     0  libinit2.o(.ARM.Collect$$libinit$$0000001B)
    __rt_lib_init_clock_1                    0x080001a7   Thumb Code     0  libinit2.o(.ARM.Collect$$libinit$$00000021)
    __rt_lib_init_cpp_1                      0x080001a7   Thumb Code     0  libinit2.o(.ARM.Collect$$libinit$$00000032)
    __rt_lib_init_exceptions_1               0x080001a7   Thumb Code     0  libinit2.o(.ARM.Collect$$libinit$$00000030)
    __rt_lib_init_fp_1                       0x080001a7   Thumb Code     0  libinit2.o(.ARM.Collect$$libinit$$00000002)
    __rt_lib_init_fp_trap_1                  0x080001a7   Thumb Code     0  libinit2.o(.ARM.Collect$$libinit$$0000001F)
    __rt_lib_init_getenv_1                   0x080001a7   Thumb Code     0  libinit2.o(.ARM.Collect$$libinit$$00000023)
    __rt_lib_init_heap_1                     0x080001a7   Thumb Code     0  libinit2.o(.ARM.Collect$$libinit$$0000000A)
    __rt_lib_init_lc_collate_1               0x080001a7   Thumb Code     0  libinit2.o(.ARM.Collect$$libinit$$00000011)
    __rt_lib_init_lc_ctype_1                 0x080001a7   Thumb Code     0  libinit2.o(.ARM.Collect$$libinit$$00000013)
    __rt_lib_init_lc_monetary_1              0x080001a7   Thumb Code     0  libinit2.o(.ARM.Collect$$libinit$$00000015)
    __rt_lib_init_lc_numeric_1               0x080001a7   Thumb Code     0  libinit2.o(.ARM.Collect$$libinit$$00000017)
    __rt_lib_init_lc_time_1                  0x080001a7   Thumb Code     0  libinit2.o(.ARM.Collect$$libinit$$00000019)
    __rt_lib_init_preinit_1                  0x080001a7   Thumb Code     0  libinit2.o(.ARM.Collect$$libinit$$00000004)
    __rt_lib_init_rand_1                     0x080001a7   Thumb Code     0  libinit2.o(.ARM.Collect$$libinit$$0000000E)
    __rt_lib_init_return                     0x080001a7   Thumb Code     0  libinit2.o(.ARM.Collect$$libinit$$00000033)
    __rt_lib_init_signal_1                   0x080001a7   Thumb Code     0  libinit2.o(.ARM.Collect$$libinit$$0000001D)
    __rt_lib_init_stdio_1                    0x080001a7   Thumb Code     0  libinit2.o(.ARM.Collect$$libinit$$00000025)
    __rt_lib_init_user_alloc_1               0x080001a7   Thumb Code     0  libinit2.o(.ARM.Collect$$libinit$$0000000C)
    __rt_lib_shutdown                        0x080001a9   Thumb Code     0  libshutdown.o(.ARM.Collect$$libshutdown$$00000000)
    __rt_lib_shutdown_fp_trap_1              0x080001ab   Thumb Code     0  libshutdown2.o(.ARM.Collect$$libshutdown$$00000006)
    __rt_lib_shutdown_heap_1                 0x080001ab   Thumb Code     0  libshutdown2.o(.ARM.Collect$$libshutdown$$0000000E)
    __rt_lib_shutdown_return                 0x080001ab   Thumb Code     0  libshutdown2.o(.ARM.Collect$$libshutdown$$0000000F)
    __rt_lib_shutdown_signal_1               0x080001ab   Thumb Code     0  libshutdown2.o(.ARM.Collect$$libshutdown$$00000009)
    __rt_lib_shutdown_stdio_1                0x080001ab   Thumb Code     0  libshutdown2.o(.ARM.Collect$$libshutdown$$00000003)
    __rt_lib_shutdown_user_alloc_1           0x080001ab   Thumb Code     0  libshutdown2.o(.ARM.Collect$$libshutdown$$0000000B)
    __rt_entry                               0x080001ad   Thumb Code     0  __rtentry.o(.ARM.Collect$$rtentry$$00000000)
    __rt_entry_presh_1                       0x080001ad   Thumb Code     0  __rtentry2.o(.ARM.Collect$$rtentry$$00000002)
    __rt_entry_sh                            0x080001ad   Thumb Code     0  __rtentry4.o(.ARM.Collect$$rtentry$$00000004)
    __rt_entry_li                            0x080001b3   Thumb Code     0  __rtentry2.o(.ARM.Collect$$rtentry$$0000000A)
    __rt_entry_postsh_1                      0x080001b3   Thumb Code     0  __rtentry2.o(.ARM.Collect$$rtentry$$00000009)
    __rt_entry_main                          0x080001b7   Thumb Code     0  __rtentry2.o(.ARM.Collect$$rtentry$$0000000D)
    __rt_entry_postli_1                      0x080001b7   Thumb Code     0  __rtentry2.o(.ARM.Collect$$rtentry$$0000000C)
    __rt_exit                                0x080001bf   Thumb Code     0  rtexit.o(.ARM.Collect$$rtexit$$00000000)
    __rt_exit_ls                             0x080001c1   Thumb Code     0  rtexit2.o(.ARM.Collect$$rtexit$$00000003)
    __rt_exit_prels_1                        0x080001c1   Thumb Code     0  rtexit2.o(.ARM.Collect$$rtexit$$00000002)
    __rt_exit_exit                           0x080001c5   Thumb Code     0  rtexit2.o(.ARM.Collect$$rtexit$$00000004)
    main                                     0x080001cd   Thumb Code   116  main.o(.text)
    TEST_ShowCar                             0x08000249   Thumb Code   352  test.o(.text)
    TEST_ShowWindmill                        0x080003a9   Thumb Code   102  test.o(.text)
    TEST_ShowSence                           0x0800040f   Thumb Code   256  test.o(.text)
    TEST_ShowLine                            0x0800050f   Thumb Code   218  test.o(.text)
    TEST_ShowMenu                            0x080005e9   Thumb Code   458  test.o(.text)
    TEST_ShowChinese                         0x080007b3   Thumb Code   254  test.o(.text)
    OLED_Write_IIC_Command                   0x080008d9   Thumb Code    44  oled.o(.text)
    OLED_Write_IIC_Data                      0x08000905   Thumb Code    44  oled.o(.text)
    OLED_WR_Byte                             0x08000931   Thumb Code    24  oled.o(.text)
    OLED_Set_Pos                             0x08000949   Thumb Code    42  oled.o(.text)
    OLED_Display_On                          0x08000973   Thumb Code    28  oled.o(.text)
    OLED_Display_Off                         0x0800098f   Thumb Code    28  oled.o(.text)
    OLED_SetBrightness                       0x080009ab   Thumb Code    22  oled.o(.text)
    OLED_Clear_page                          0x080009c1   Thumb Code    54  oled.o(.text)
    OLED_Clear                               0x080009f7   Thumb Code    64  oled.o(.text)
    OLED_ShowPic                             0x08000a37   Thumb Code    82  oled.o(.text)
    OLED_Init                                0x08000a89   Thumb Code   226  oled.o(.text)
    MYMATH_Pow                               0x08000b6d   Thumb Code    34  mymath.o(.text)
    MYMATH_Sin                               0x08000b8f   Thumb Code   214  mymath.o(.text)
    MYMATH_Cos                               0x08000c65   Thumb Code    20  mymath.o(.text)
    MYMATH_arcSin                            0x08000c79   Thumb Code   168  mymath.o(.text)
    MYMATH_arcCos                            0x08000d21   Thumb Code    20  mymath.o(.text)
    MENU_InitMenu                            0x08000d59   Thumb Code    78  menu.o(.text)
    MENU_SetValue                            0x08000da7   Thumb Code    90  menu.o(.text)
    MENU_ShowMenu                            0x08000e01   Thumb Code   564  menu.o(.text)
    MENU_MoveMenu                            0x08001035   Thumb Code   156  menu.o(.text)
    MENU_DistoryMenu                         0x080010d1   Thumb Code   146  menu.o(.text)
    MENU_DistoryAllMenu                      0x08001163   Thumb Code    16  menu.o(.text)
    MYIIC_Start                              0x08001181   Thumb Code    48  myiic.o(.text)
    MYIIC_Stop                               0x080011b1   Thumb Code    52  myiic.o(.text)
    MYIIC_Wait_Ack                           0x080011e5   Thumb Code    86  myiic.o(.text)
    MYIIC_Write_Byte                         0x0800123b   Thumb Code    82  myiic.o(.text)
    MYIIC_Ack                                0x0800128d   Thumb Code    56  myiic.o(.text)
    MYIIC_NAck                               0x080012c5   Thumb Code    54  myiic.o(.text)
    MYIIC_Read_Byte                          0x080012fb   Thumb Code   100  myiic.o(.text)
    MYIIC_InitGPIO                           0x0800135f   Thumb Code    80  myiic.o(.text)
    GUI_SetSpanAng                           0x080013bd   Thumb Code    30  gui.o(.text)
    GUI_SetSpan                              0x080013db   Thumb Code     8  gui.o(.text)
    GUI_SetSpanZero                          0x080013e3   Thumb Code     8  gui.o(.text)
    GUI_SetSpanCenter                        0x080013eb   Thumb Code   146  gui.o(.text)
    GUI_WriteMap                             0x0800147d   Thumb Code   152  gui.o(.text)
    GUI_ShowMap                              0x08001515   Thumb Code    10  gui.o(.text)
    GUI_ClearMap                             0x0800151f   Thumb Code    40  gui.o(.text)
    reversedata                              0x08001547   Thumb Code    38  gui.o(.text)
    GUI_Reverse                              0x0800156d   Thumb Code   388  gui.o(.text)
    GUI_ShowChar                             0x080016f1   Thumb Code   474  gui.o(.text)
    GUI_ShowNum                              0x080018cb   Thumb Code   328  gui.o(.text)
    GUI_ShowInt                              0x08001a13   Thumb Code   300  gui.o(.text)
    GUI_ShowFloat                            0x08001b3f   Thumb Code   810  gui.o(.text)
    GUI_ShowString                           0x08001e69   Thumb Code   220  gui.o(.text)
    GUI_ShowChinese                          0x08001f45   Thumb Code   366  gui.o(.text)
    GUI_ShowChineseStr                       0x080020b3   Thumb Code   202  gui.o(.text)
    GUI_rectangle                            0x0800217d   Thumb Code    58  gui.o(.text)
    GUI_line                                 0x080021b7   Thumb Code  1072  gui.o(.text)
    GUI_DrawLine                             0x080025e7   Thumb Code   276  gui.o(.text)
    GUI_circle                               0x080026fb   Thumb Code    82  gui.o(.text)
    GUI_circleunfilled                       0x0800274d   Thumb Code   130  gui.o(.text)
    GUI_rectangleunfilled                    0x080027cf   Thumb Code   114  gui.o(.text)
    GUI_ShowBMP                              0x08002841   Thumb Code   376  gui.o(.text)
    GUI_ShowPNG                              0x080029b9   Thumb Code   392  gui.o(.text)
    delay_init                               0x08002b45   Thumb Code    50  delay.o(.text)
    delay_us                                 0x08002b77   Thumb Code    72  delay.o(.text)
    delay_ms                                 0x08002bbf   Thumb Code    72  delay.o(.text)
    _sys_exit                                0x08002c19   Thumb Code     6  usart.o(.text)
    fputc                                    0x08002c1f   Thumb Code    24  usart.o(.text)
    uart_init                                0x08002c37   Thumb Code   152  usart.o(.text)
    USART1_IRQHandler                        0x08002ccf   Thumb Code   122  usart.o(.text)
    SystemInit                               0x08002e37   Thumb Code    78  system_stm32f10x.o(.text)
    SystemCoreClockUpdate                    0x08002e85   Thumb Code   142  system_stm32f10x.o(.text)
    Reset_Handler                            0x08002f39   Thumb Code     8  startup_stm32f10x_hd.o(.text)
    ADC1_2_IRQHandler                        0x08002f53   Thumb Code     0  startup_stm32f10x_hd.o(.text)
    ADC3_IRQHandler                          0x08002f53   Thumb Code     0  startup_stm32f10x_hd.o(.text)
    CAN1_RX1_IRQHandler                      0x08002f53   Thumb Code     0  startup_stm32f10x_hd.o(.text)
    CAN1_SCE_IRQHandler                      0x08002f53   Thumb Code     0  startup_stm32f10x_hd.o(.text)
    DMA1_Channel1_IRQHandler                 0x08002f53   Thumb Code     0  startup_stm32f10x_hd.o(.text)
    DMA1_Channel2_IRQHandler                 0x08002f53   Thumb Code     0  startup_stm32f10x_hd.o(.text)
    DMA1_Channel3_IRQHandler                 0x08002f53   Thumb Code     0  startup_stm32f10x_hd.o(.text)
    DMA1_Channel4_IRQHandler                 0x08002f53   Thumb Code     0  startup_stm32f10x_hd.o(.text)
    DMA1_Channel5_IRQHandler                 0x08002f53   Thumb Code     0  startup_stm32f10x_hd.o(.text)
    DMA1_Channel6_IRQHandler                 0x08002f53   Thumb Code     0  startup_stm32f10x_hd.o(.text)
    DMA1_Channel7_IRQHandler                 0x08002f53   Thumb Code     0  startup_stm32f10x_hd.o(.text)
    DMA2_Channel1_IRQHandler                 0x08002f53   Thumb Code     0  startup_stm32f10x_hd.o(.text)
    DMA2_Channel2_IRQHandler                 0x08002f53   Thumb Code     0  startup_stm32f10x_hd.o(.text)
    DMA2_Channel3_IRQHandler                 0x08002f53   Thumb Code     0  startup_stm32f10x_hd.o(.text)
    DMA2_Channel4_5_IRQHandler               0x08002f53   Thumb Code     0  startup_stm32f10x_hd.o(.text)
    EXTI0_IRQHandler                         0x08002f53   Thumb Code     0  startup_stm32f10x_hd.o(.text)
    EXTI15_10_IRQHandler                     0x08002f53   Thumb Code     0  startup_stm32f10x_hd.o(.text)
    EXTI1_IRQHandler                         0x08002f53   Thumb Code     0  startup_stm32f10x_hd.o(.text)
    EXTI2_IRQHandler                         0x08002f53   Thumb Code     0  startup_stm32f10x_hd.o(.text)
    EXTI3_IRQHandler                         0x08002f53   Thumb Code     0  startup_stm32f10x_hd.o(.text)
    EXTI4_IRQHandler                         0x08002f53   Thumb Code     0  startup_stm32f10x_hd.o(.text)
    EXTI9_5_IRQHandler                       0x08002f53   Thumb Code     0  startup_stm32f10x_hd.o(.text)
    FLASH_IRQHandler                         0x08002f53   Thumb Code     0  startup_stm32f10x_hd.o(.text)
    FSMC_IRQHandler                          0x08002f53   Thumb Code     0  startup_stm32f10x_hd.o(.text)
    I2C1_ER_IRQHandler                       0x08002f53   Thumb Code     0  startup_stm32f10x_hd.o(.text)
    I2C1_EV_IRQHandler                       0x08002f53   Thumb Code     0  startup_stm32f10x_hd.o(.text)
    I2C2_ER_IRQHandler                       0x08002f53   Thumb Code     0  startup_stm32f10x_hd.o(.text)
    I2C2_EV_IRQHandler                       0x08002f53   Thumb Code     0  startup_stm32f10x_hd.o(.text)
    PVD_IRQHandler                           0x08002f53   Thumb Code     0  startup_stm32f10x_hd.o(.text)
    RCC_IRQHandler                           0x08002f53   Thumb Code     0  startup_stm32f10x_hd.o(.text)
    RTCAlarm_IRQHandler                      0x08002f53   Thumb Code     0  startup_stm32f10x_hd.o(.text)
    RTC_IRQHandler                           0x08002f53   Thumb Code     0  startup_stm32f10x_hd.o(.text)
    SDIO_IRQHandler                          0x08002f53   Thumb Code     0  startup_stm32f10x_hd.o(.text)
    SPI1_IRQHandler                          0x08002f53   Thumb Code     0  startup_stm32f10x_hd.o(.text)
    SPI2_IRQHandler                          0x08002f53   Thumb Code     0  startup_stm32f10x_hd.o(.text)
    SPI3_IRQHandler                          0x08002f53   Thumb Code     0  startup_stm32f10x_hd.o(.text)
    TAMPER_IRQHandler                        0x08002f53   Thumb Code     0  startup_stm32f10x_hd.o(.text)
    TIM1_BRK_IRQHandler                      0x08002f53   Thumb Code     0  startup_stm32f10x_hd.o(.text)
    TIM1_CC_IRQHandler                       0x08002f53   Thumb Code     0  startup_stm32f10x_hd.o(.text)
    TIM1_TRG_COM_IRQHandler                  0x08002f53   Thumb Code     0  startup_stm32f10x_hd.o(.text)
    TIM1_UP_IRQHandler                       0x08002f53   Thumb Code     0  startup_stm32f10x_hd.o(.text)
    TIM2_IRQHandler                          0x08002f53   Thumb Code     0  startup_stm32f10x_hd.o(.text)
    TIM3_IRQHandler                          0x08002f53   Thumb Code     0  startup_stm32f10x_hd.o(.text)
    TIM4_IRQHandler                          0x08002f53   Thumb Code     0  startup_stm32f10x_hd.o(.text)
    TIM5_IRQHandler                          0x08002f53   Thumb Code     0  startup_stm32f10x_hd.o(.text)
    TIM6_IRQHandler                          0x08002f53   Thumb Code     0  startup_stm32f10x_hd.o(.text)
    TIM7_IRQHandler                          0x08002f53   Thumb Code     0  startup_stm32f10x_hd.o(.text)
    TIM8_BRK_IRQHandler                      0x08002f53   Thumb Code     0  startup_stm32f10x_hd.o(.text)
    TIM8_CC_IRQHandler                       0x08002f53   Thumb Code     0  startup_stm32f10x_hd.o(.text)
    TIM8_TRG_COM_IRQHandler                  0x08002f53   Thumb Code     0  startup_stm32f10x_hd.o(.text)
    TIM8_UP_IRQHandler                       0x08002f53   Thumb Code     0  startup_stm32f10x_hd.o(.text)
    UART4_IRQHandler                         0x08002f53   Thumb Code     0  startup_stm32f10x_hd.o(.text)
    UART5_IRQHandler                         0x08002f53   Thumb Code     0  startup_stm32f10x_hd.o(.text)
    USART2_IRQHandler                        0x08002f53   Thumb Code     0  startup_stm32f10x_hd.o(.text)
    USART3_IRQHandler                        0x08002f53   Thumb Code     0  startup_stm32f10x_hd.o(.text)
    USBWakeUp_IRQHandler                     0x08002f53   Thumb Code     0  startup_stm32f10x_hd.o(.text)
    USB_HP_CAN1_TX_IRQHandler                0x08002f53   Thumb Code     0  startup_stm32f10x_hd.o(.text)
    USB_LP_CAN1_RX0_IRQHandler               0x08002f53   Thumb Code     0  startup_stm32f10x_hd.o(.text)
    WWDG_IRQHandler                          0x08002f53   Thumb Code     0  startup_stm32f10x_hd.o(.text)
    __user_initial_stackheap                 0x08002f55   Thumb Code     0  startup_stm32f10x_hd.o(.text)
    NVIC_PriorityGroupConfig                 0x08002f79   Thumb Code    10  misc.o(.text)
    NVIC_Init                                0x08002f83   Thumb Code   100  misc.o(.text)
    NVIC_SetVectorTable                      0x08002fe7   Thumb Code    14  misc.o(.text)
    NVIC_SystemLPConfig                      0x08002ff5   Thumb Code    34  misc.o(.text)
    SysTick_CLKSourceConfig                  0x08003017   Thumb Code    40  misc.o(.text)
    GPIO_DeInit                              0x08003055   Thumb Code   172  stm32f10x_gpio.o(.text)
    GPIO_AFIODeInit                          0x08003101   Thumb Code    20  stm32f10x_gpio.o(.text)
    GPIO_Init                                0x08003115   Thumb Code   278  stm32f10x_gpio.o(.text)
    GPIO_StructInit                          0x0800322b   Thumb Code    16  stm32f10x_gpio.o(.text)
    GPIO_ReadInputDataBit                    0x0800323b   Thumb Code    18  stm32f10x_gpio.o(.text)
    GPIO_ReadInputData                       0x0800324d   Thumb Code     8  stm32f10x_gpio.o(.text)
    GPIO_ReadOutputDataBit                   0x08003255   Thumb Code    18  stm32f10x_gpio.o(.text)
    GPIO_ReadOutputData                      0x08003267   Thumb Code     8  stm32f10x_gpio.o(.text)
    GPIO_SetBits                             0x0800326f   Thumb Code     4  stm32f10x_gpio.o(.text)
    GPIO_ResetBits                           0x08003273   Thumb Code     4  stm32f10x_gpio.o(.text)
    GPIO_WriteBit                            0x08003277   Thumb Code    10  stm32f10x_gpio.o(.text)
    GPIO_Write                               0x08003281   Thumb Code     4  stm32f10x_gpio.o(.text)
    GPIO_PinLockConfig                       0x08003285   Thumb Code    18  stm32f10x_gpio.o(.text)
    GPIO_EventOutputConfig                   0x08003297   Thumb Code    26  stm32f10x_gpio.o(.text)
    GPIO_EventOutputCmd                      0x080032b1   Thumb Code     6  stm32f10x_gpio.o(.text)
    GPIO_PinRemapConfig                      0x080032b7   Thumb Code   138  stm32f10x_gpio.o(.text)
    GPIO_EXTILineConfig                      0x08003341   Thumb Code    66  stm32f10x_gpio.o(.text)
    GPIO_ETH_MediaInterfaceConfig            0x08003383   Thumb Code     8  stm32f10x_gpio.o(.text)
    RCC_DeInit                               0x080033b1   Thumb Code    64  stm32f10x_rcc.o(.text)
    RCC_HSEConfig                            0x080033f1   Thumb Code    70  stm32f10x_rcc.o(.text)
    RCC_GetFlagStatus                        0x08003437   Thumb Code    56  stm32f10x_rcc.o(.text)
    RCC_WaitForHSEStartUp                    0x0800346f   Thumb Code    56  stm32f10x_rcc.o(.text)
    RCC_AdjustHSICalibrationValue            0x080034a7   Thumb Code    20  stm32f10x_rcc.o(.text)
    RCC_HSICmd                               0x080034bb   Thumb Code     6  stm32f10x_rcc.o(.text)
    RCC_PLLConfig                            0x080034c1   Thumb Code    24  stm32f10x_rcc.o(.text)
    RCC_PLLCmd                               0x080034d9   Thumb Code     6  stm32f10x_rcc.o(.text)
    RCC_SYSCLKConfig                         0x080034df   Thumb Code    18  stm32f10x_rcc.o(.text)
    RCC_GetSYSCLKSource                      0x080034f1   Thumb Code    10  stm32f10x_rcc.o(.text)
    RCC_HCLKConfig                           0x080034fb   Thumb Code    18  stm32f10x_rcc.o(.text)
    RCC_PCLK1Config                          0x0800350d   Thumb Code    18  stm32f10x_rcc.o(.text)
    RCC_PCLK2Config                          0x0800351f   Thumb Code    20  stm32f10x_rcc.o(.text)
    RCC_ITConfig                             0x08003533   Thumb Code    26  stm32f10x_rcc.o(.text)
    RCC_USBCLKConfig                         0x0800354d   Thumb Code     8  stm32f10x_rcc.o(.text)
    RCC_ADCCLKConfig                         0x08003555   Thumb Code    18  stm32f10x_rcc.o(.text)
    RCC_LSEConfig                            0x08003567   Thumb Code    50  stm32f10x_rcc.o(.text)
    RCC_LSICmd                               0x08003599   Thumb Code     6  stm32f10x_rcc.o(.text)
    RCC_RTCCLKConfig                         0x0800359f   Thumb Code    12  stm32f10x_rcc.o(.text)
    RCC_RTCCLKCmd                            0x080035ab   Thumb Code     8  stm32f10x_rcc.o(.text)
    RCC_GetClocksFreq                        0x080035b3   Thumb Code   192  stm32f10x_rcc.o(.text)
    RCC_AHBPeriphClockCmd                    0x08003673   Thumb Code    26  stm32f10x_rcc.o(.text)
    RCC_APB2PeriphClockCmd                   0x0800368d   Thumb Code    26  stm32f10x_rcc.o(.text)
    RCC_APB1PeriphClockCmd                   0x080036a7   Thumb Code    26  stm32f10x_rcc.o(.text)
    RCC_APB2PeriphResetCmd                   0x080036c1   Thumb Code    26  stm32f10x_rcc.o(.text)
    RCC_APB1PeriphResetCmd                   0x080036db   Thumb Code    26  stm32f10x_rcc.o(.text)
    RCC_BackupResetCmd                       0x080036f5   Thumb Code     8  stm32f10x_rcc.o(.text)
    RCC_ClockSecuritySystemCmd               0x080036fd   Thumb Code     6  stm32f10x_rcc.o(.text)
    RCC_MCOConfig                            0x08003703   Thumb Code     6  stm32f10x_rcc.o(.text)
    RCC_ClearFlag                            0x08003709   Thumb Code    14  stm32f10x_rcc.o(.text)
    RCC_GetITStatus                          0x08003717   Thumb Code    20  stm32f10x_rcc.o(.text)
    RCC_ClearITPendingBit                    0x0800372b   Thumb Code     6  stm32f10x_rcc.o(.text)
    USART_DeInit                             0x08003755   Thumb Code   134  stm32f10x_usart.o(.text)
    USART_Init                               0x080037db   Thumb Code   210  stm32f10x_usart.o(.text)
    USART_StructInit                         0x080038ad   Thumb Code    24  stm32f10x_usart.o(.text)
    USART_ClockInit                          0x080038c5   Thumb Code    34  stm32f10x_usart.o(.text)
    USART_ClockStructInit                    0x080038e7   Thumb Code    12  stm32f10x_usart.o(.text)
    USART_Cmd                                0x080038f3   Thumb Code    24  stm32f10x_usart.o(.text)
    USART_ITConfig                           0x0800390b   Thumb Code    74  stm32f10x_usart.o(.text)
    USART_DMACmd                             0x08003955   Thumb Code    18  stm32f10x_usart.o(.text)
    USART_SetAddress                         0x08003967   Thumb Code    18  stm32f10x_usart.o(.text)
    USART_WakeUpConfig                       0x08003979   Thumb Code    18  stm32f10x_usart.o(.text)
    USART_ReceiverWakeUpCmd                  0x0800398b   Thumb Code    24  stm32f10x_usart.o(.text)
    USART_LINBreakDetectLengthConfig         0x080039a3   Thumb Code    18  stm32f10x_usart.o(.text)
    USART_LINCmd                             0x080039b5   Thumb Code    24  stm32f10x_usart.o(.text)
    USART_SendData                           0x080039cd   Thumb Code     8  stm32f10x_usart.o(.text)
    USART_ReceiveData                        0x080039d5   Thumb Code    10  stm32f10x_usart.o(.text)
    USART_SendBreak                          0x080039df   Thumb Code    10  stm32f10x_usart.o(.text)
    USART_SetGuardTime                       0x080039e9   Thumb Code    16  stm32f10x_usart.o(.text)
    USART_SetPrescaler                       0x080039f9   Thumb Code    16  stm32f10x_usart.o(.text)
    USART_SmartCardCmd                       0x08003a09   Thumb Code    24  stm32f10x_usart.o(.text)
    USART_SmartCardNACKCmd                   0x08003a21   Thumb Code    24  stm32f10x_usart.o(.text)
    USART_HalfDuplexCmd                      0x08003a39   Thumb Code    24  stm32f10x_usart.o(.text)
    USART_OverSampling8Cmd                   0x08003a51   Thumb Code    22  stm32f10x_usart.o(.text)
    USART_OneBitMethodCmd                    0x08003a67   Thumb Code    24  stm32f10x_usart.o(.text)
    USART_IrDAConfig                         0x08003a7f   Thumb Code    18  stm32f10x_usart.o(.text)
    USART_IrDACmd                            0x08003a91   Thumb Code    24  stm32f10x_usart.o(.text)
    USART_GetFlagStatus                      0x08003aa9   Thumb Code    26  stm32f10x_usart.o(.text)
    USART_ClearFlag                          0x08003ac3   Thumb Code    18  stm32f10x_usart.o(.text)
    USART_GetITStatus                        0x08003ad5   Thumb Code    84  stm32f10x_usart.o(.text)
    USART_ClearITPendingBit                  0x08003b29   Thumb Code    52  stm32f10x_usart.o(.text)
    NMI_Handler                              0x08003b5d   Thumb Code     2  stm32f10x_it.o(.text)
    HardFault_Handler                        0x08003b5f   Thumb Code     4  stm32f10x_it.o(.text)
    MemManage_Handler                        0x08003b63   Thumb Code     4  stm32f10x_it.o(.text)
    BusFault_Handler                         0x08003b67   Thumb Code     4  stm32f10x_it.o(.text)
    UsageFault_Handler                       0x08003b6b   Thumb Code     4  stm32f10x_it.o(.text)
    SVC_Handler                              0x08003b6f   Thumb Code     2  stm32f10x_it.o(.text)
    DebugMon_Handler                         0x08003b71   Thumb Code     2  stm32f10x_it.o(.text)
    PendSV_Handler                           0x08003b73   Thumb Code     2  stm32f10x_it.o(.text)
    SysTick_Handler                          0x08003b75   Thumb Code     2  stm32f10x_it.o(.text)
    __use_no_semihosting                     0x08003b77   Thumb Code     2  use_no_semi_2.o(.text)
    strlen                                   0x08003b79   Thumb Code    62  strlen.o(.text)
    __use_two_region_memory                  0x08003bb7   Thumb Code     2  heapauxi.o(.text)
    __rt_heap_escrow$2region                 0x08003bb9   Thumb Code     2  heapauxi.o(.text)
    __rt_heap_expand$2region                 0x08003bbb   Thumb Code     2  heapauxi.o(.text)
    __I$use$semihosting                      0x08003bbd   Thumb Code     0  use_no_semi.o(.text)
    __use_no_semihosting_swi                 0x08003bbd   Thumb Code     2  use_no_semi.o(.text)
    __user_setup_stackheap                   0x08003bbf   Thumb Code    74  sys_stackheap_outer.o(.text)
    exit                                     0x08003c09   Thumb Code    12  exit.o(.text)
    __user_libspace                          0x08003c15   Thumb Code     8  libspace.o(.text)
    __user_perproc_libspace                  0x08003c15   Thumb Code     0  libspace.o(.text)
    __user_perthread_libspace                0x08003c15   Thumb Code     0  libspace.o(.text)
    __aeabi_d2f                              0x08003c1d   Thumb Code     0  d2f.o(x$fpl$d2f)
    _d2f                                     0x08003c1d   Thumb Code    98  d2f.o(x$fpl$d2f)
    __fpl_dcmp_Inf                           0x08003c7f   Thumb Code    24  dcmpi.o(x$fpl$dcmpinf)
    __aeabi_ddiv                             0x08003c99   Thumb Code     0  ddiv.o(x$fpl$ddiv)
    _ddiv                                    0x08003c99   Thumb Code   552  ddiv.o(x$fpl$ddiv)
    __aeabi_i2d                              0x08003f49   Thumb Code     0  dflt_clz.o(x$fpl$dflt)
    _dflt                                    0x08003f49   Thumb Code    46  dflt_clz.o(x$fpl$dflt)
    __aeabi_ui2d                             0x08003f77   Thumb Code     0  dflt_clz.o(x$fpl$dfltu)
    _dfltu                                   0x08003f77   Thumb Code    38  dflt_clz.o(x$fpl$dfltu)
    __aeabi_cdcmple                          0x08003f9d   Thumb Code     0  dleqf.o(x$fpl$dleqf)
    _dcmple                                  0x08003f9d   Thumb Code   120  dleqf.o(x$fpl$dleqf)
    __fpl_dcmple_InfNaN                      0x08003fff   Thumb Code     0  dleqf.o(x$fpl$dleqf)
    __fpl_dnaninf                            0x08004015   Thumb Code   156  dnaninf.o(x$fpl$dnaninf)
    __fpl_dretinf                            0x080040b1   Thumb Code    12  dretinf.o(x$fpl$dretinf)
    __aeabi_cdrcmple                         0x080040bd   Thumb Code     0  drleqf.o(x$fpl$drleqf)
    _drcmple                                 0x080040bd   Thumb Code   108  drleqf.o(x$fpl$drleqf)
    __aeabi_f2d                              0x08004129   Thumb Code     0  f2d.o(x$fpl$f2d)
    _f2d                                     0x08004129   Thumb Code    86  f2d.o(x$fpl$f2d)
    __aeabi_fadd                             0x08004181   Thumb Code     0  faddsub_clz.o(x$fpl$fadd)
    _fadd                                    0x08004181   Thumb Code   196  faddsub_clz.o(x$fpl$fadd)
    __fpl_fcmp_Inf                           0x08004245   Thumb Code    24  fcmpi.o(x$fpl$fcmpinf)
    __aeabi_fdiv                             0x0800425d   Thumb Code     0  fdiv.o(x$fpl$fdiv)
    _fdiv                                    0x0800425d   Thumb Code   384  fdiv.o(x$fpl$fdiv)
    __aeabi_f2iz                             0x080043e1   Thumb Code     0  ffix.o(x$fpl$ffix)
    _ffix                                    0x080043e1   Thumb Code    54  ffix.o(x$fpl$ffix)
    __aeabi_i2f                              0x08004419   Thumb Code     0  fflt_clz.o(x$fpl$fflt)
    _fflt                                    0x08004419   Thumb Code    48  fflt_clz.o(x$fpl$fflt)
    __aeabi_ui2f                             0x08004449   Thumb Code     0  fflt_clz.o(x$fpl$ffltu)
    _ffltu                                   0x08004449   Thumb Code    38  fflt_clz.o(x$fpl$ffltu)
    __aeabi_cfcmple                          0x08004471   Thumb Code     0  fleqf.o(x$fpl$fleqf)
    _fcmple                                  0x08004471   Thumb Code   104  fleqf.o(x$fpl$fleqf)
    __fpl_fcmple_InfNaN                      0x080044c3   Thumb Code     0  fleqf.o(x$fpl$fleqf)
    __aeabi_fmul                             0x080044d9   Thumb Code     0  fmul.o(x$fpl$fmul)
    _fmul                                    0x080044d9   Thumb Code   258  fmul.o(x$fpl$fmul)
    __fpl_fnaninf                            0x080045db   Thumb Code   140  fnaninf.o(x$fpl$fnaninf)
    __fpl_fretinf                            0x08004667   Thumb Code    10  fretinf.o(x$fpl$fretinf)
    __aeabi_cfrcmple                         0x08004671   Thumb Code     0  frleqf.o(x$fpl$frleqf)
    _frcmple                                 0x08004671   Thumb Code    98  frleqf.o(x$fpl$frleqf)
    __aeabi_frsub                            0x080046d3   Thumb Code     0  faddsub_clz.o(x$fpl$frsb)
    _frsb                                    0x080046d3   Thumb Code    20  faddsub_clz.o(x$fpl$frsb)
    __aeabi_fsub                             0x080046e9   Thumb Code     0  faddsub_clz.o(x$fpl$fsub)
    _fsub                                    0x080046e9   Thumb Code   234  faddsub_clz.o(x$fpl$fsub)
    PIG1                                     0x080047d2   Data         120  main.o(.constdata)
    __I$use$fp                               0x080047d2   Number         0  usenofp.o(x$fpl$usenofp)
    PIG2                                     0x0800484a   Data         120  main.o(.constdata)
    Pic0                                     0x080048c2   Data          64  test.o(.constdata)
    Pic1                                     0x08004902   Data         144  test.o(.constdata)
    Mask1                                    0x08004992   Data         144  test.o(.constdata)
    Pic2                                     0x08004a22   Data           8  test.o(.constdata)
    Pic3                                     0x08004a2a   Data          16  test.o(.constdata)
    argTab                                   0x08004a3c   Data         724  mymath.o(.constdata)
    F6x8                                     0x08004d10   Data         552  gui.o(.constdata)
    F8X16                                    0x08004f38   Data        1520  gui.o(.constdata)
    Region$$Table$$Base                      0x08005528   Number         0  anon$$obj.o(Region$$Table)
    Region$$Table$$Limit                     0x08005548   Number         0  anon$$obj.o(Region$$Table)
    MenuIndex                                0x20000000   Data           1  menu.o(.data)
    MenuBefore                               0x20000004   Data           4  menu.o(.data)
    MenuHead                                 0x20000008   Data           4  menu.o(.data)
    Hzk                                      0x2000000c   Data         192  gui.o(.data)
    __stdout                                 0x200000d0   Data           4  usart.o(.data)
    USART_RX_STA                             0x200000d4   Data           2  usart.o(.data)
    SystemCoreClock                          0x200000d8   Data           4  system_stm32f10x.o(.data)
    AHBPrescTable                            0x200000dc   Data          16  system_stm32f10x.o(.data)
    Map                                      0x20000100   Data        1024  gui.o(.bss)
    spanSet                                  0x20000500   Data          28  gui.o(.bss)
    USART_RX_BUF                             0x2000051c   Data         200  usart.o(.bss)
    __libspace_start                         0x200005e4   Data          96  libspace.o(.bss)
    __temporary_stack_top$libspace           0x20000644   Data           0  libspace.o(.bss)



==============================================================================

Memory Map of the image

  Image Entry point : 0x08000131

  Load Region LR_IROM1 (Base: 0x08000000, Size: 0x00005648, Max: 0x00010000, ABSOLUTE)

    Execution Region ER_IROM1 (Exec base: 0x08000000, Load base: 0x08000000, Size: 0x00005548, Max: 0x00010000, ABSOLUTE)

    Exec Addr    Load Addr    Size         Type   Attr      Idx    E Section Name        Object

    0x08000000   0x08000000   0x00000130   Data   RO          255    RESET               startup_stm32f10x_hd.o
    0x08000130   0x08000130   0x00000008   Code   RO          333  * !!!main             c_w.l(__main.o)
    0x08000138   0x08000138   0x00000034   Code   RO          544    !!!scatter          c_w.l(__scatter.o)
    0x0800016c   0x0800016c   0x0000001a   Code   RO          546    !!handler_copy      c_w.l(__scatter_copy.o)
    0x08000186   0x08000186   0x00000002   PAD
    0x08000188   0x08000188   0x0000001c   Code   RO          548    !!handler_zi        c_w.l(__scatter_zi.o)
    0x080001a4   0x080001a4   0x00000002   Code   RO          419    .ARM.Collect$$libinit$$00000000  c_w.l(libinit.o)
    0x080001a6   0x080001a6   0x00000000   Code   RO          426    .ARM.Collect$$libinit$$00000002  c_w.l(libinit2.o)
    0x080001a6   0x080001a6   0x00000000   Code   RO          428    .ARM.Collect$$libinit$$00000004  c_w.l(libinit2.o)
    0x080001a6   0x080001a6   0x00000000   Code   RO          431    .ARM.Collect$$libinit$$0000000A  c_w.l(libinit2.o)
    0x080001a6   0x080001a6   0x00000000   Code   RO          433    .ARM.Collect$$libinit$$0000000C  c_w.l(libinit2.o)
    0x080001a6   0x080001a6   0x00000000   Code   RO          435    .ARM.Collect$$libinit$$0000000E  c_w.l(libinit2.o)
    0x080001a6   0x080001a6   0x00000000   Code   RO          438    .ARM.Collect$$libinit$$00000011  c_w.l(libinit2.o)
    0x080001a6   0x080001a6   0x00000000   Code   RO          440    .ARM.Collect$$libinit$$00000013  c_w.l(libinit2.o)
    0x080001a6   0x080001a6   0x00000000   Code   RO          442    .ARM.Collect$$libinit$$00000015  c_w.l(libinit2.o)
    0x080001a6   0x080001a6   0x00000000   Code   RO          444    .ARM.Collect$$libinit$$00000017  c_w.l(libinit2.o)
    0x080001a6   0x080001a6   0x00000000   Code   RO          446    .ARM.Collect$$libinit$$00000019  c_w.l(libinit2.o)
    0x080001a6   0x080001a6   0x00000000   Code   RO          448    .ARM.Collect$$libinit$$0000001B  c_w.l(libinit2.o)
    0x080001a6   0x080001a6   0x00000000   Code   RO          450    .ARM.Collect$$libinit$$0000001D  c_w.l(libinit2.o)
    0x080001a6   0x080001a6   0x00000000   Code   RO          452    .ARM.Collect$$libinit$$0000001F  c_w.l(libinit2.o)
    0x080001a6   0x080001a6   0x00000000   Code   RO          454    .ARM.Collect$$libinit$$00000021  c_w.l(libinit2.o)
    0x080001a6   0x080001a6   0x00000000   Code   RO          456    .ARM.Collect$$libinit$$00000023  c_w.l(libinit2.o)
    0x080001a6   0x080001a6   0x00000000   Code   RO          458    .ARM.Collect$$libinit$$00000025  c_w.l(libinit2.o)
    0x080001a6   0x080001a6   0x00000000   Code   RO          462    .ARM.Collect$$libinit$$0000002C  c_w.l(libinit2.o)
    0x080001a6   0x080001a6   0x00000000   Code   RO          464    .ARM.Collect$$libinit$$0000002E  c_w.l(libinit2.o)
    0x080001a6   0x080001a6   0x00000000   Code   RO          466    .ARM.Collect$$libinit$$00000030  c_w.l(libinit2.o)
    0x080001a6   0x080001a6   0x00000000   Code   RO          468    .ARM.Collect$$libinit$$00000032  c_w.l(libinit2.o)
    0x080001a6   0x080001a6   0x00000002   Code   RO          469    .ARM.Collect$$libinit$$00000033  c_w.l(libinit2.o)
    0x080001a8   0x080001a8   0x00000002   Code   RO          487    .ARM.Collect$$libshutdown$$00000000  c_w.l(libshutdown.o)
    0x080001aa   0x080001aa   0x00000000   Code   RO          498    .ARM.Collect$$libshutdown$$00000003  c_w.l(libshutdown2.o)
    0x080001aa   0x080001aa   0x00000000   Code   RO          501    .ARM.Collect$$libshutdown$$00000006  c_w.l(libshutdown2.o)
    0x080001aa   0x080001aa   0x00000000   Code   RO          504    .ARM.Collect$$libshutdown$$00000009  c_w.l(libshutdown2.o)
    0x080001aa   0x080001aa   0x00000000   Code   RO          506    .ARM.Collect$$libshutdown$$0000000B  c_w.l(libshutdown2.o)
    0x080001aa   0x080001aa   0x00000000   Code   RO          509    .ARM.Collect$$libshutdown$$0000000E  c_w.l(libshutdown2.o)
    0x080001aa   0x080001aa   0x00000002   Code   RO          510    .ARM.Collect$$libshutdown$$0000000F  c_w.l(libshutdown2.o)
    0x080001ac   0x080001ac   0x00000000   Code   RO          381    .ARM.Collect$$rtentry$$00000000  c_w.l(__rtentry.o)
    0x080001ac   0x080001ac   0x00000000   Code   RO          396    .ARM.Collect$$rtentry$$00000002  c_w.l(__rtentry2.o)
    0x080001ac   0x080001ac   0x00000006   Code   RO          408    .ARM.Collect$$rtentry$$00000004  c_w.l(__rtentry4.o)
    0x080001b2   0x080001b2   0x00000000   Code   RO          398    .ARM.Collect$$rtentry$$00000009  c_w.l(__rtentry2.o)
    0x080001b2   0x080001b2   0x00000004   Code   RO          399    .ARM.Collect$$rtentry$$0000000A  c_w.l(__rtentry2.o)
    0x080001b6   0x080001b6   0x00000000   Code   RO          401    .ARM.Collect$$rtentry$$0000000C  c_w.l(__rtentry2.o)
    0x080001b6   0x080001b6   0x00000008   Code   RO          402    .ARM.Collect$$rtentry$$0000000D  c_w.l(__rtentry2.o)
    0x080001be   0x080001be   0x00000002   Code   RO          423    .ARM.Collect$$rtexit$$00000000  c_w.l(rtexit.o)
    0x080001c0   0x080001c0   0x00000000   Code   RO          471    .ARM.Collect$$rtexit$$00000002  c_w.l(rtexit2.o)
    0x080001c0   0x080001c0   0x00000004   Code   RO          472    .ARM.Collect$$rtexit$$00000003  c_w.l(rtexit2.o)
    0x080001c4   0x080001c4   0x00000006   Code   RO          473    .ARM.Collect$$rtexit$$00000004  c_w.l(rtexit2.o)
    0x080001ca   0x080001ca   0x00000002   PAD
    0x080001cc   0x080001cc   0x0000007c   Code   RO            1    .text               main.o
    0x08000248   0x08000248   0x00000690   Code   RO           83    .text               test.o
    0x080008d8   0x080008d8   0x00000292   Code   RO           98    .text               oled.o
    0x08000b6a   0x08000b6a   0x00000002   PAD
    0x08000b6c   0x08000b6c   0x000001ec   Code   RO          110    .text               mymath.o
    0x08000d58   0x08000d58   0x00000428   Code   RO          125    .text               menu.o
    0x08001180   0x08001180   0x0000023c   Code   RO          143    .text               myiic.o
    0x080013bc   0x080013bc   0x00001788   Code   RO          155    .text               gui.o
    0x08002b44   0x08002b44   0x000000d4   Code   RO          175    .text               delay.o
    0x08002c18   0x08002c18   0x00000140   Code   RO          201    .text               usart.o
    0x08002d58   0x08002d58   0x000001e0   Code   RO          224    .text               system_stm32f10x.o
    0x08002f38   0x08002f38   0x00000040   Code   RO          256    .text               startup_stm32f10x_hd.o
    0x08002f78   0x08002f78   0x000000dc   Code   RO          260    .text               misc.o
    0x08003054   0x08003054   0x0000035c   Code   RO          272    .text               stm32f10x_gpio.o
    0x080033b0   0x080033b0   0x000003a4   Code   RO          284    .text               stm32f10x_rcc.o
    0x08003754   0x08003754   0x00000408   Code   RO          298    .text               stm32f10x_usart.o
    0x08003b5c   0x08003b5c   0x0000001a   Code   RO          310    .text               stm32f10x_it.o
    0x08003b76   0x08003b76   0x00000002   Code   RO          327    .text               c_w.l(use_no_semi_2.o)
    0x08003b78   0x08003b78   0x0000003e   Code   RO          329    .text               c_w.l(strlen.o)
    0x08003bb6   0x08003bb6   0x00000006   Code   RO          331    .text               c_w.l(heapauxi.o)
    0x08003bbc   0x08003bbc   0x00000002   Code   RO          379    .text               c_w.l(use_no_semi.o)
    0x08003bbe   0x08003bbe   0x0000004a   Code   RO          410    .text               c_w.l(sys_stackheap_outer.o)
    0x08003c08   0x08003c08   0x0000000c   Code   RO          412    .text               c_w.l(exit.o)
    0x08003c14   0x08003c14   0x00000008   Code   RO          420    .text               c_w.l(libspace.o)
    0x08003c1c   0x08003c1c   0x00000062   Code   RO          335    x$fpl$d2f           fz_ws.l(d2f.o)
    0x08003c7e   0x08003c7e   0x00000018   Code   RO          382    x$fpl$dcmpinf       fz_ws.l(dcmpi.o)
    0x08003c96   0x08003c96   0x00000002   PAD
    0x08003c98   0x08003c98   0x000002b0   Code   RO          338    x$fpl$ddiv          fz_ws.l(ddiv.o)
    0x08003f48   0x08003f48   0x0000002e   Code   RO          342    x$fpl$dflt          fz_ws.l(dflt_clz.o)
    0x08003f76   0x08003f76   0x00000026   Code   RO          341    x$fpl$dfltu         fz_ws.l(dflt_clz.o)
    0x08003f9c   0x08003f9c   0x00000078   Code   RO          347    x$fpl$dleqf         fz_ws.l(dleqf.o)
    0x08004014   0x08004014   0x0000009c   Code   RO          384    x$fpl$dnaninf       fz_ws.l(dnaninf.o)
    0x080040b0   0x080040b0   0x0000000c   Code   RO          386    x$fpl$dretinf       fz_ws.l(dretinf.o)
    0x080040bc   0x080040bc   0x0000006c   Code   RO          349    x$fpl$drleqf        fz_ws.l(drleqf.o)
    0x08004128   0x08004128   0x00000056   Code   RO          351    x$fpl$f2d           fz_ws.l(f2d.o)
    0x0800417e   0x0800417e   0x00000002   PAD
    0x08004180   0x08004180   0x000000c4   Code   RO          353    x$fpl$fadd          fz_ws.l(faddsub_clz.o)
    0x08004244   0x08004244   0x00000018   Code   RO          388    x$fpl$fcmpinf       fz_ws.l(fcmpi.o)
    0x0800425c   0x0800425c   0x00000184   Code   RO          360    x$fpl$fdiv          fz_ws.l(fdiv.o)
    0x080043e0   0x080043e0   0x00000036   Code   RO          363    x$fpl$ffix          fz_ws.l(ffix.o)
    0x08004416   0x08004416   0x00000002   PAD
    0x08004418   0x08004418   0x00000030   Code   RO          368    x$fpl$fflt          fz_ws.l(fflt_clz.o)
    0x08004448   0x08004448   0x00000026   Code   RO          367    x$fpl$ffltu         fz_ws.l(fflt_clz.o)
    0x0800446e   0x0800446e   0x00000002   PAD
    0x08004470   0x08004470   0x00000068   Code   RO          373    x$fpl$fleqf         fz_ws.l(fleqf.o)
    0x080044d8   0x080044d8   0x00000102   Code   RO          375    x$fpl$fmul          fz_ws.l(fmul.o)
    0x080045da   0x080045da   0x0000008c   Code   RO          390    x$fpl$fnaninf       fz_ws.l(fnaninf.o)
    0x08004666   0x08004666   0x0000000a   Code   RO          392    x$fpl$fretinf       fz_ws.l(fretinf.o)
    0x08004670   0x08004670   0x00000062   Code   RO          377    x$fpl$frleqf        fz_ws.l(frleqf.o)
    0x080046d2   0x080046d2   0x00000014   Code   RO          354    x$fpl$frsb          fz_ws.l(faddsub_clz.o)
    0x080046e6   0x080046e6   0x00000002   PAD
    0x080046e8   0x080046e8   0x000000ea   Code   RO          355    x$fpl$fsub          fz_ws.l(faddsub_clz.o)
    0x080047d2   0x080047d2   0x00000000   Code   RO          394    x$fpl$usenofp       fz_ws.l(usenofp.o)
    0x080047d2   0x080047d2   0x000000f0   Data   RO            2    .constdata          main.o
    0x080048c2   0x080048c2   0x00000178   Data   RO           84    .constdata          test.o
    0x08004a3a   0x08004a3a   0x00000002   PAD
    0x08004a3c   0x08004a3c   0x000002d4   Data   RO          111    .constdata          mymath.o
    0x08004d10   0x08004d10   0x00000818   Data   RO          157    .constdata          gui.o
    0x08005528   0x08005528   0x00000020   Data   RO          542    Region$$Table       anon$$obj.o


    Execution Region RW_IRAM1 (Exec base: 0x20000000, Load base: 0x08005548, Size: 0x00000c48, Max: 0x00005000, ABSOLUTE)

    Exec Addr    Load Addr    Size         Type   Attr      Idx    E Section Name        Object

    0x20000000   0x08005548   0x0000000c   Data   RW          126    .data               menu.o
    0x2000000c   0x08005554   0x000000c0   Data   RW          158    .data               gui.o
    0x200000cc   0x08005614   0x00000004   Data   RW          176    .data               delay.o
    0x200000d0   0x08005618   0x00000006   Data   RW          203    .data               usart.o
    0x200000d6   0x0800561e   0x00000002   PAD
    0x200000d8   0x08005620   0x00000014   Data   RW          225    .data               system_stm32f10x.o
    0x200000ec   0x08005634   0x00000014   Data   RW          285    .data               stm32f10x_rcc.o
    0x20000100        -       0x0000041c   Zero   RW          156    .bss                gui.o
    0x2000051c        -       0x000000c8   Zero   RW          202    .bss                usart.o
    0x200005e4        -       0x00000060   Zero   RW          421    .bss                c_w.l(libspace.o)
    0x20000644   0x08005648   0x00000004   PAD
    0x20000648        -       0x00000200   Zero   RW          254    HEAP                startup_stm32f10x_hd.o
    0x20000848        -       0x00000400   Zero   RW          253    STACK               startup_stm32f10x_hd.o


==============================================================================

Image component sizes


      Code (inc. data)   RO Data    RW Data    ZI Data      Debug   Object Name

         0          0          0          0          0         32   core_cm3.o
       212         18          0          4          0       1011   delay.o
      6024         46       2072        192       1052      12267   gui.o
       124          8        240          0          0     233211   main.o
      1064         26          0         12          0       3207   menu.o
       220         22          0          0          0       1793   misc.o
       572         14          0          0          0       1829   myiic.o
       492         36        724          0          0       2116   mymath.o
       658          0          0          0          0       2817   oled.o
        64         26        304          0       1536        800   startup_stm32f10x_hd.o
       860         38          0          0          0       5641   stm32f10x_gpio.o
        26          0          0          0          0       1226   stm32f10x_it.o
       932         36          0         20          0       8812   stm32f10x_rcc.o
      1032         22          0          0          0       8364   stm32f10x_usart.o
       480         38          0         20          0       1879   system_stm32f10x.o
      1680         86        376          0          0       3277   test.o
       320         16          0          6        200       3154   usart.o

    ----------------------------------------------------------------------
     14762        432       3750        256       2788     291436   Object Totals
         0          0         32          0          0          0   (incl. Generated)
         2          0          2          2          0          0   (incl. Padding)

    ----------------------------------------------------------------------

      Code (inc. data)   RO Data    RW Data    ZI Data      Debug   Library Member Name

         8          0          0          0          0         68   __main.o
         0          0          0          0          0          0   __rtentry.o
        12          0          0          0          0          0   __rtentry2.o
         6          0          0          0          0          0   __rtentry4.o
        52          8          0          0          0          0   __scatter.o
        26          0          0          0          0          0   __scatter_copy.o
        28          0          0          0          0          0   __scatter_zi.o
        12          0          0          0          0         72   exit.o
         6          0          0          0          0        152   heapauxi.o
         2          0          0          0          0          0   libinit.o
         2          0          0          0          0          0   libinit2.o
         2          0          0          0          0          0   libshutdown.o
         2          0          0          0          0          0   libshutdown2.o
         8          4          0          0         96         68   libspace.o
         2          0          0          0          0          0   rtexit.o
        10          0          0          0          0          0   rtexit2.o
        62          0          0          0          0         76   strlen.o
        74          0          0          0          0         80   sys_stackheap_outer.o
         2          0          0          0          0         68   use_no_semi.o
         2          0          0          0          0         68   use_no_semi_2.o
        98          4          0          0          0         92   d2f.o
        24          0          0          0          0         68   dcmpi.o
       688        140          0          0          0        208   ddiv.o
        84          0          0          0          0        136   dflt_clz.o
       120          4          0          0          0         92   dleqf.o
       156          4          0          0          0         92   dnaninf.o
        12          0          0          0          0         68   dretinf.o
       108          0          0          0          0         80   drleqf.o
        86          4          0          0          0         84   f2d.o
       450          8          0          0          0        236   faddsub_clz.o
        24          0          0          0          0         68   fcmpi.o
       388         76          0          0          0         96   fdiv.o
        54          4          0          0          0         84   ffix.o
        86          0          0          0          0        136   fflt_clz.o
       104          4          0          0          0         84   fleqf.o
       258          4          0          0          0         84   fmul.o
       140          4          0          0          0         84   fnaninf.o
        10          0          0          0          0         68   fretinf.o
        98          0          0          0          0         68   frleqf.o
         0          0          0          0          0          0   usenofp.o

    ----------------------------------------------------------------------
      3320        268          0          0        100       2580   Library Totals
        14          0          0          0          4          0   (incl. Padding)

    ----------------------------------------------------------------------

      Code (inc. data)   RO Data    RW Data    ZI Data      Debug   Library Name

       318         12          0          0         96        652   c_w.l
      2988        256          0          0          0       1928   fz_ws.l

    ----------------------------------------------------------------------
      3320        268          0          0        100       2580   Library Totals

    ----------------------------------------------------------------------

==============================================================================


      Code (inc. data)   RO Data    RW Data    ZI Data      Debug   

     18082        700       3750        256       2888     291464   Grand Totals
     18082        700       3750        256       2888     291464   ELF Image Totals
     18082        700       3750        256          0          0   ROM Totals

==============================================================================

    Total RO  Size (Code + RO Data)                21832 (  21.32kB)
    Total RW  Size (RW Data + ZI Data)              3144 (   3.07kB)
    Total ROM Size (Code + RO Data + RW Data)      22088 (  21.57kB)

==============================================================================

