:020000040800F2
:10000000480C0020692F0008E1030008E303000802
:10001000E7030008EB030008EF03000800000000FE
:10002000000000000000000000000000F3030008D2
:10003000F503000800000000F7030008F9030008BA
:10004000832F0008832F0008832F0008832F0008C8
:10005000832F0008832F0008832F0008832F0008B8
:10006000832F0008832F0008832F0008832F0008A8
:10007000832F0008832F0008832F0008832F000898
:10008000832F0008832F0008832F0008832F000888
:10009000832F0008832F0008832F0008832F000878
:1000A000832F0008832F0008832F0008832F000868
:1000B000832F0008832F0008832F0008832F000858
:1000C000832F0008832F0008832F0008832F000848
:1000D000832F0008DF2E0008832F0008832F0008DD
:1000E000832F0008832F0008832F0008832F000828
:1000F000832F0008832F0008832F0008832F000818
:10010000832F0008832F0008832F0008832F000807
:10011000832F0008832F0008832F0008832F0008F7
:10012000832F0008832F0008832F0008832F0008E7
:1001300000F002F800F03AF80AA090E8000C8244BF
:100140008344AAF10107DA4501D100F02FF8AFF29C
:10015000090EBAE80F0013F0010F18BFFB1A43F0A5
:10016000010318475458000074580000103A24BF87
:1001700078C878C1FAD8520724BF30C830C144BF0C
:1001800004680C607047000000230024002500264E
:10019000103A28BF78C1FBD8520728BF30C148BFEA
:1001A0000B6070471FB51FBD10B510BD03F012FDE9
:1001B0001146FFF7F7FF00F009F803F030FD03B434
:1001C000FFF7F2FF03BC02F02FFE00001CB502F0A7
:1001D000C1FD02F020F900F0CDFD002000F0D0FEBE
:1001E0000020794920231E22CDE90010014601F0AC
:1001F00092FF002075491E234622CDE900100146DA
:10020000282001F088FF00F0A1FE4FF47A7002F080
:10021000DEFD4FF47A7002F0DAFD4FF47A7002F0EE
:10022000D6FD002000F0ACFE00F03BFB00F08BFCA4
:1002300000F0A4FB00F0B5FA00201CBD2DE9F04F42
:1002400087B00446002000F09BFE02F065FC002110
:1002500001EB4401C8B202F0BCFC02F08FFC352077
:1002600002F0B7FC02F08AFC172002F0B2FC02F0A8
:1002700085FC02F069FC0A2002F0A9FD02F04CFCAA
:10028000002101EB4401C8B202F0A3FC02F076FCAD
:10029000582002F09EFC02F071FCE02002F099FC74
:1002A00002F06CFC02F050FC322002F090FD02F0F3
:1002B00033FC012101EB4401C8B202F08AFC02F0D8
:1002C0005DFC002835D1012002F0E3FC06464FF624
:1002D000FF7000EA0626012002F0DBFC0643012045
:1002E00002F0D7FC012002F0D4FC05464FF6FF7067
:1002F00000EA0525012002F0CCFC0543002002F0B5
:10030000C8FC02F021FC02F007FC002101EB4401D3
:10031000C8B202F05EFC02F031FCB02002F059FCE1
:1003200002F02CFC982002F054FC02F027FC02F0B2
:100330000BFC284604F0D0FA834604F03DF9002275
:10034000234BCDE9000103F019FF07460022214BA2
:1003500003F056FD0022204BCDE9020104F042F8E3
:10036000CDE9040103F066FC8246304604F0B4FA9D
:10037000834604F021F90022184BCDE9020103F075
:10038000FDFE0022134BCDE9040103F039FD0746C1
:1003900003F050FC81460120102105235246CDE98F
:1003A00000100821002001F03BF801201021052356
:1003B0004A46CDE900101821002001F031F800F084
:1003C000C5FD07B0BDE8F08F624C0008DA4C0008AC
:1003D00000E06540E0FFEF400080464000005940EB
:1003E000704700BFFEE700BFFEE700BFFEE700BFAB
:1003F000FEE7704770477047704700000CB500205B
:10040000019000906C48006840F480306A490860B0
:1004100000BF6948006800F4003000900198401C5B
:100420000190009818B90198B0F5A06FF1D1624819
:10043000006800F4003010B10120009001E00020BD
:1004400000900098012843D15C48006840F01000FB
:100450005A4908600846006820F003000860084612
:10046000006840F002000860534840685249486004
:100470000846406848600846406840F4806048602C
:100480000846406820F47C1048600846406840F404
:10049000E81048600846006840F08070086000BFBF
:1004A0004548006800F000700028F9D042484068D4
:1004B00020F00300404948600846406840F00200D0
:1004C000486000BF3C48406800F00C000828F9D1A3
:1004D0000CBD10B5FFF792FF10BD10B5364800688F
:1004E00040F001003449086008464068344908403B
:1004F0003149486008460068324908402E49086082
:100500000846006820F4802008600846406820F40F
:10051000FE0048604FF41F008860FFF7DAFF4FF0DD
:1005200000602949086010BD10B50021002000229C
:10053000214B5B6803F00C0121B1042906D0082986
:1005400028D107E0214B224C236027E01F4B204C91
:10055000236023E0184B5B6803F47010164B5B6854
:1005600003F48032022303EB904022B9194B43433A
:10057000174C23600DE0104B5B6803F4003323B18C
:10058000144B4343124C236003E0104B4343104C85
:10059000236003E00D4B0E4C236000BF00BF064BF1
:1005A0005B68C3F303130C4CE15C094B1B68CB4045
:1005B000074C236010BD00000010024000200240E4
:1005C0000000FFF8FFFFF6FE08ED00E000127A00E1
:1005D0000000002000093D00040000202DE9F04F3C
:1005E00085B004460D4616461F4667B10D20FE49EC
:1005F00005F1200304F12402CDE90010294620462C
:1006000001F089FD0DE00C20F749F84A05F12003BF
:10061000CDE90021029004F124022946204601F090
:1006200036FE304600F0E6FB05F11B0004F03CF915
:10063000804604F1080004F037F9814605F11700FF
:1006400004F032F98246201D04F02EF983464B4611
:100650005246594601A8CDF8008000F0E2FBDDE9E2
:100660000101CDE903014FF08241049803F0D0FF6E
:10067000834604F0FDF880464FF08241039803F072
:10068000C7FF834604F0F4F88146049804F0F0F8BC
:100690008246039804F0ECF802902120D4494346A6
:1006A0004A46CDE900105146029801F034FD05F1AB
:1006B0001B0004F0F9F8804604F11F0004F0F4F880
:1006C000814605F1170004F0EFF8824604F11B00A3
:1006D00004F0EAF883464B465246594601A8CDF845
:1006E000008000F09EFBDDE90101CDE903014FF040
:1006F0008241049803F08CFF834604F0B9F88046E9
:100700004FF08241039803F083FF834604F0B0F872
:100710008146049804F0ACF88246039804F0A8F8E7
:1007200002902120B24943464A46CDE90010514685
:10073000029801F0F0FC05B0BDE8F08F2DE9FC4710
:1007400004460D46174600260920AA4905F1200354
:1007500004F11002CDE900102946204601F0DBFC2F
:1007600000BF1AE05A2106FB01F004F09DF8814613
:10077000394603F04DFF804600F03CFB29209E499E
:1007800005F10B0304F11802CDE90010E91C04F196
:10079000080001F0C0FC701CC6B2042EE2DBBDE80C
:1007A000FC870024002500260027642500BF26E0E2
:1007B000002000F0E5FB04EB4401C1F5876004F084
:1007C00073F88046C5F15A0042460521FFF7B6FF8F
:1007D0006100C1F5347004F067F88046C5F114007B
:1007E00042460F21FFF7AAFF641CB4F5B47F00D185
:1007F000002400F0ABFB142002F0E9FA6D1E002D7E
:10080000D6DC20266FF023054AE0002000F0B8FB7C
:1008100004EB4401C1F5876004F046F88046424687
:1008200005215A20FFF78AFF6100C1F5347004F0FA
:100830003BF8804642460F211420FFF77FFF2046F9
:1008400004F032F88046A6F1120168003B464246A9
:10085000FFF7C4FE204604F027F880463B46424698
:1008600031462846FFF7BAFE641CB4F5B47F00D1C8
:100870000024204604EBD0714910A4EB410101296A
:1008800000D16D1C802D06DD6FF023050FB901200E
:1008900000E00020074600F059FB142002F097FA10
:1008A000B3E738B50024002000F06AFB00BF12E077
:1008B000204604F011F80546012080232A46002135
:1008C0000090084601F0FAFA00F040FB0A2002F01E
:1008D0007EFA601D84B25A2CEADD002413E004F194
:1008E0005A0003F0E1FF0546012080232A4600213B
:1008F0000090184601F0E2FA00F028FB0A2002F00E
:1009000066FA601D84B25A2CE9DD002413E004F17C
:10091000B40003F0C9FF0546012080232A46402188
:100920000090184601F0CAFA00F010FB0A2002F00D
:100930004EFA601D84B25A2CE9DD002413E004F560
:10094000877003F0B1FF0546012080232A4640212D
:100950000090002001F0B2FA00F0F8FA0A2002F04C
:1009600036FA601D84B25A2CE9DD4FF4FA7002F0B9
:100970002EFA4FF4FA7002F02AFA38BD2DE9F04F42
:10098000BBB04FF004090024A24600203A903990F1
:10099000389037903690359003900490DDE903014C
:1009A0003AAB5022CDE9000114A12DA801F0A0FE20
:1009B000DDE9030139AB4922CDE9000111A125A8E8
:1009C00001F096FEDDE9030138AB4422CDE90001D8
:1009D0000EA11DA801F08CFEDDE9030137AB512209
:1009E000CDE9000116E00000924D0008224E0008FB
:1009F000B24E0008524D0008BA4E00086D656E7583
:100A0000310000006D656E75320000006D656E7519
:100A1000330000008BA115A801F06AFEDDE9030197
:100A200036AB5222CDE9000188A10DA801F060FE8D
:100A3000DDE9030135AB5A22CDE9000185A105A806
:100A400001F056FE78E0002000F09AFA4FF0010A1B
:100A500024E0601C03F028FF8046504603F03CFF72
:100A60008346414603F042FE06460AF1010003F0C8
:100A70001BFF8046204603F017FF8346414603F0E4
:100A800035FE0746314603F0C3FD0546294650466C
:100A900001F055FE0AF1010000F0FF0ABAF1030F60
:100AA000D7DD032094FBF0F5284603F0FDFE3790D8
:100AB000204603F0FDFA07460022684B03F0A0F938
:100AC000054603F0B7F83690204603F0EDFE35906A
:100AD000102001F061FE202C05DA4FF0FF310020DC
:100AE00001F074FF03E00121002001F06FFF641C9E
:100AF000402C1CDBB9F1030F00D11EE0484601F089
:100B0000B3FF062099FBF0F100FB1190401C00F0B0
:100B1000FF09B9F1010F09D1DDE9030139AB492220
:100B2000CDE9000149A10DA801F0E2FD002400F08B
:100B30000DFA322002F04BF985E700BF01F0DDFF2E
:100B40003BB0BDE8F08F2DE9F04188B044A103C966
:100B5000CDE9040100240025002621266DE006F0E1
:100B60000100A8B106F0020090B1FF2000F008FAE1
:100B7000A4F1B40003F098FE074603200C210223E1
:100B80003A46CDE900100021084600F049FC10E08B
:100B9000002000F0F5F9A4F1B40003F085FE07464B
:100BA00000200C2102233A46CDE90010014600F056
:100BB00037FC204603F078FE074600F01BF906F0EC
:100BC000200078B14FF084404FF08543264A4FF023
:100BD0008341009002A800F024F9DDE90201CDE98B
:100BE000060104E04FF0834006901F4807900798E5
:100BF00003F03EFE0746069803F03AFE80460623C1
:100C000004AA3946009600F0BEFEA41CB4F5B47FD9
:100C10000ED10024681CC5B20DB9212608E0012DB3
:100C200001D1112604E0022D01D12F2600E005E0BC
:100C300000F08CF9322002F0CAF890E700BF08B04B
:100C4000BDE8F0816D656E75340000006D656E75F0
:100C5000350000006D656E75360000000000104024
:100C600000010203040500000000C04110B5044665
:100C700001F052FF782001F0ACFF01F07FFF00206F
:100C800001F0A7FF01F07AFF204601F0A2FF01F07A
:100C900075FF01F059FF10BD10B5044601F03CFF8F
:100CA000782001F096FF01F069FF402001F091FFEC
:100CB00001F064FF204601F08CFF01F05FFF01F0BE
:100CC00043FF10BD70B505460C461CB12846FFF722
:100CD000E3FF02E02846FFF7C9FF70BD70B5044688
:100CE0000D4605F1B001C8B20021FFF7EBFF10215E
:100CF00041EA14100021FFF7E5FF04F00F00002186
:100D0000FFF7E0FF70BD10B500218D20FFF7DAFF7F
:100D100000211420FFF7D6FF0021AF20FFF7D2FFFC
:100D200010BD10B500218D20FFF7CCFF0021102051
:100D3000FFF7C8FF0021AE20FFF7C4FF10BD70B55C
:100D4000044604F1AF01C8B20021FFF7BBFF002148
:100D50000846FFF7B7FF00211020FFF7B3FF00257B
:100D600005E001210020FFF7ADFF681CC5B2802D12
:100D7000F7DB70BD70B5002419E004F1B001C8B212
:100D80000021FFF79FFF00210846FFF79BFF00218E
:100D90001020FFF797FF002505E001210020FFF755
:100DA00091FF681CC5B2802DF7DB601CC4B2082C13
:100DB000E3DB70BD70B5002419E004F1B001C8B2E6
:100DC0000021FFF77FFF00210846FFF77BFF00218E
:100DD0001020FFF777FF002505E001210846FFF707
:100DE00071FF681CC5B2802DF7DB601CC4B2082CF3
:100DF000E3DB70BD10B50446F8480461204601F0FD
:100E000092FBF6498861204601F0F8FBF3494861FE
:100E100010BDF24A106051607047F04A9060D16096
:100E200070472DE9FE4F0546884616461C460C9F26
:100E30003146384603F0A0FE8346E84881695846AB
:100E400003F092FD81464146204603F095FE009056
:100E5000E2484169009803F087FD8346214603F08C
:100E600080FE8246494603F0D3FB01903146384666
:100E700003F082FE8346D9484169584603F074FD69
:100E800081464146204603F077FE0090D3488169B1
:100E9000009803F069FD8346394603F062FE8246FE
:100EA000494603F069FE0290DDE90101C5E9000150
:100EB000BDE8FE8FF0B50446002000230025002980
:100EC00043DB802941DA002A3FDB402A3DDA16461F
:100ED000D71702EB5777C7F3C700C14E06EBC01612
:100EE000755C0026BE4F07EBC0177E5400BF2AE09A
:100EF000BB4E06EBC016765C7606360EB84F07EB97
:100F0000C0177E54C2F10706082707FB00669E4201
:100F10000AD0B34E06EBC016765C06EBD516B04F82
:100F200007EBC0177E540AE0002C08DDAC4E06EB40
:100F3000C016765C761CAA4F07EBC0177E546E066F
:100F4000350E5E1CF3B2082BD2DBF0BD70B5002568
:100F5000002400BF11E021460020FFF7BFFE00255E
:100F600007E09F4901EBC411485DFFF795FE681C3F
:100F7000C5B2802DF5DB601CC4B2082CEBDB70BD64
:100F800002460020002100BF0BE0002105E0944B49
:100F900003EBC0135A544B1CD9B28029F7DB431C16
:100FA000D8B20828F1DB704710B5014600220023B3
:100FB000002000BF08E001F001034406200EC41821
:100FC000E0B24910541CE2B2082AF4DB10BD2DE94E
:100FD000F04F89B082468B4617469846129E0025F0
:100FE0000024002008900790069005908146A7F104
:100FF0002000C7B200BFC9E0B8F1100F09D106F058
:10100000040020B1C5F10800C0B208900DE00895B9
:101010000BE0062D00DBBCE006F0040020B1C5F1BA
:101020000600C0B2089000E008950024A8E0B8F1DE
:10103000100F20D106F0080020B1C4F11000C0B29A
:10104000079000E007942046E21704EB5272D2109A
:1010500005EB071303EBC202624B9A5C2146E317D0
:1010600004EB5373DB10A4EBC30C012303FA0CF362
:1010700002EA030915E0082C00DB84E006F0080012
:1010800020B1C4F10800C0B2079000E0079407EB5C
:101090004700554901EB4000415D0120A04001EAB5
:1010A000000906F0010018B1B9F1000F00D165E0A8
:1010B00006F0020030B1B9F1000F01D1012000E0CB
:1010C0000020814606F0100010B906F02000E8B3B9
:1010D000079803F001FC029040488169029803F0F0
:1010E00043FC0490089803F0F7FB01903B484169EA
:1010F000019803F039FC029038480168029803F027
:1011000087FA0390049903F037FD0690079803F0DF
:10111000E3FB029031484169029803F025FC0490FA
:10112000089803F0D9FB01902C488169019803F0DD
:101130001BFC029029484168029803F069FA039069
:10114000049903F065FA0590059800E00CE003F0BF
:101150008FFB0490069803F08BFB039001464846F2
:10116000049AFFF7A7FE08E0079800EB0B02089827
:1011700000EB0A014846FFF79DFE00BF601CC4B2A9
:10118000102CFFF654AF00BF681CC5B2082DFFF647
:1011900033AF00BF09B0BDE8F08F2DE9F04F89B043
:1011A00007468B4690461D46DDF85090129C00265F
:1011B000CDF8208000200790102C00D00C2455B9C9
:1011C00000BF0A210898B0FBF1F00890681CC5B276
:1011D00008980028F5D1002686E0000000050020D0
:1011E00000010020F2500008CA4E00080A20B8FB97
:1011F000F0F100FB1180303007900A20B8FBF0F8C6
:10120000B8F1000F0AD10798302807D113980128A8
:1012100002D13020079001E02020079009F0100053
:1012200090B1584603F040FBA24604EBDA714A1035
:10123000A91B491E069002FB017003F035FB0590C7
:101240000699FFF7E6FD3FE009F02000E0B3A24673
:1012500004EBDA714A10A91B491E02FB017003F06E
:1012600023FB0190FE488168019803F085FC029001
:10127000FB488169029803F077FB0390F848C16846
:10128000039803F0C5F904EBD4714A10A91B491E59
:10129000CDE9050402FB017003F006FB0190F04864
:1012A0008168019803F068FC0290ED48416902985A
:1012B00003F05AFB0390EA488168039803F0A8F909
:1012C00004900599FFF7A5FDA24604EBDA714A10D8
:1012D000A91B491E02FB01702346CDF80090594618
:1012E000079AFFF774FE761CAE42FFF67FAF09B097
:1012F000BDE8F08F2DE9FF5F0746894616461C467C
:101300000E9D4FF0000AD046102C00D00C2405F0A2
:10131000100010B905F02000A8B1484603F0C4FA47
:101320008346384603F0C0FA59460390FFF771FD33
:10133000484603F0B9FA8346384603F0B5FA5946F1
:101340000390FFF76AFD002E0CDA23462D22494652
:1013500038460095FFF73BFE204604EBD07107EBC3
:1013600061077642B24600BF0A209AFBF0FA08F104
:10137000010000F0FF08BAF1000FF5DC05F01000E5
:1013800080B1484603F090FAA34604EBDB714910A4
:10139000039001FB087003F087FA02900399FFF7AE
:1013A00038FD31E005F0200070B3384603F07CFAD8
:1013B0000090AB488168009803F0DEFB0190A848DC
:1013C0008169019803F0D0FA8346A548C168584660
:1013D00003F01EF90390384603F066FA0090A04827
:1013E0008168009803F0C8FB01909D48416901980D
:1013F00003F0BAFA83469A488168584603F008F920
:1014000002900399FFF705FD012043463246494605
:10141000CDE9010500943846FFF7BFFEBDE8FF9F08
:101420002DE9FF4F8BB007469246DDE918460020B4
:101430000A900990089007900025102C00D00C24E9
:1014400006F0100010B906F02000A8B10C9803F0C7
:101450002BFA8046384603F027FA81464146FFF7CB
:10146000D8FC0C9803F020FA8046384603F01CFAAA
:1014700081464146FFF7D1FC0021504603F040FA77
:101480000DD223462D22009638460C99FFF79FFD7A
:10149000204604EBD07107EB61078AF0004A504602
:1014A00003F0E6F90990099803F0FEF980465146E9
:1014B00003F057FB07900E9D06E06A49079803F07A
:1014C00053FA0790681EC5B2002DF6DC079803F0AA
:1014D000CFF9089009980A90002500BF0A210A98C0
:1014E00090FBF1F00A90681CC5B20A980028F5DC60
:1014F00006F0100080B10C9803F0D6F98146A046A2
:1015000004EBD871491001FB057003F0CDF9834657
:101510004946FFF77EFC31E006F0200070B3384604
:1015200003F0C2F905904E488168059803F024FB4A
:1015300083464B488169584603F016FA814648486D
:10154000C168484603F064F88046384603F0ACF9B9
:10155000059043488168059803F00EFB8346404898
:101560004169584603F000FA81463D488168484683
:1015700003F04EF841460690FFF74BFC01202B4646
:10158000CDE9010600943846099A0C99FFF705FE4B
:101590000E98002863DD06F0100080B10C9803F06F
:1015A00083F98146A04604EBD871491001FB057010
:1015B00003F07AF983464946FFF72BFC3BE006F03F
:1015C0002000C0B3A04604EBD871491001FB0570A0
:1015D00003F06AF9039022488168039803F0CCFA7B
:1015E00083461F488169584603F0BEF981461C486E
:1015F000C168484603F00CF804EBD4714910CDE9FA
:10160000050401FB057003F04FF90390144881684D
:10161000039803F0B1FA834611484169584603F034
:10162000A3F981460E488168484602F0F1FF049014
:101630000599FFF7EEFBA04604EBD871491001FBBA
:10164000057023462E2200960C99FFF7C0FC06F089
:101650001000D0B10C9803F027F9834604E070E045
:10166000000500200000204104EBD871491001FB67
:101670000571A14604EBD97201EB620003F014F985
:1016800059460690FFF7C5FB47E006F02000E8B397
:10169000A04604EBD871491001FB0571A14604EB8B
:1016A000D97201EB620003F0FFF80190F7488168FE
:1016B000019803F061FA0290F4488169029803F0FE
:1016C00053F90390F148C168039802F0A1FFA346C3
:1016D00004EBDB71491001FB057104EBD472CDE919
:1016E000050401EB620003F0DFF80190E748816830
:1016F000019803F041FA0290E4484169029803F02E
:1017000033F90390E1488168039800E005E002F0B6
:101710007FFF04900599FFF77CFB0120A04604EBB6
:10172000D871491001FB0571A14604EBD972CDE9CE
:101730000106009401EB62000E9B089A0C99FFF7DA
:101740002CFD0FB0BDE8F08F2DE9FE4F8046894695
:1017500016461C460C9D0027102C00D00C2405F0CA
:10176000200050B1484603F09FF88246404603F0FF
:101770009BF883465146FFF750FB4EE005F0100002
:1017800058B1484603F090F88246404603F08CF882
:1017900083465146FFF73DFB31E005F0200070B372
:1017A000404603F081F80090B8488168009803F043
:1017B000E3F98346B5488169584603F0D5F8824677
:1017C000B248C168504602F023FF0290404603F041
:1017D0006BF80090AD488168009803F0CDF983461E
:1017E000AA484169584603F0BFF88246A748816875
:1017F000504602F00DFF01900299FFF70AFB009599
:10180000F25D234649464046FFF7E1FB204604EBE4
:10181000D07108EB6108781CC7B2F05D0028ADD12B
:10182000BDE8FE8F2DE9F04F87B08046894692468D
:101830001D4600260024A346002006900590049033
:10184000002700BF99E005F0040020B1C6F11000A8
:1018500000F0FF0B01E006F0FF0B002489E005F02B
:10186000080020B1C4F11000C0B2069001E0E0B25F
:1018700006902046E21704EB5272D210022303FBBB
:101880000A22834B03EB0212925D2146E31704EB1D
:101890005373DB10A4EBC30C012303FA0CF302EA2D
:1018A000030705F0010008B107B961E005F0020087
:1018B00020B10FB9012000E00020074605F010001C
:1018C00018B905F02000002849D0069803F004F864
:1018D00001906E488169019803F046F803905846DC
:1018E00002F0FAFF009069484169009803F03CF863
:1018F000019066480168019802F08AFE02900399FF
:1019000003F03AF90590069802F0E6FF01905F486F
:101910004169019803F028F80390584602F0DCFF73
:1019200000905A488169009803F01EF801905748CA
:101930004168019802F06CFE0290039902F068FE83
:101940000490049802F094FF0390059802F090FF31
:10195000029001463846039AFFF7ACFA07E0069872
:1019600000EB09020BEB08013846FFF7A3FA00BFB2
:10197000641C102CFFF673AF761C102EFFF663AFBD
:1019800007B0BDE8F08F2DE9FC5F07468846154695
:101990001E460C9C04F0200050B1404602F084FF2B
:1019A0008146384602F080FF82464946FFF735FA05
:1019B0004AE004F0100058B1404602F075FF81463D
:1019C000384602F071FF82464946FFF722FA31E0BD
:1019D00004F0200070B3384602F066FF00902B48F8
:1019E0008168009803F0C8F8834628488169584602
:1019F00002F0BAFF82462548C168504602F008FE50
:101A00008146384602F050FF0090204881680098D7
:101A100003F0B2F883461D484169584602F0A4FF1E
:101A200082461A488168504602F0F2FD494601900C
:101A3000FFF7EFF92A78234641463846FFF7F2FED2
:101A40001037701EC6B26D1C002EB2DCBDE8FC9FC4
:101A50002DE9F04304460D4690469946002600279E
:101A600026460CE02F4605E03A4631460120FFF7B6
:101A700021FA7F1C05EB0900B842F5DA761C04EB6D
:101A80000800B042EEDABDE8F08300000005002057
:101A9000140000202DE9F04F85B080460F46924695
:101AA00099460E9E00240025002004900390D04506
:101AB00070DA4F455CDAA8EB0A0002F0F5FE8346C7
:101AC000A7EB090002F0F0FE5946029002F00EFE6C
:101AD0000490444649E03D4644E0802C41DA402DE4
:101AE0003FDA484602F0E0FE0290A4EB0A0002F062
:101AF000DBFE0190049902F037FF8346029902F061
:101B000087FD0390304602F0E7FE4FF080410090E1
:101B100002F0ECFD0290284602F0C6FE0190029908
:101B200002F076FD8346039902F0EAFF19D23046AF
:101B300002F0D2FE4FF08041009002F0D7FD0290FB
:101B4000284602F0B1FE0190029903F015F8834691
:101B5000039902F0D5FE04D22A4621460120FFF760
:101B6000A9F96D1C4D45B8DB641C5445B3DBA2E1FB
:101B70004F455DDDA8EB0A0002F096FE0290A7EB50
:101B8000090002F091FE8346029902F0AFFD049035
:101B900044464AE068E03D4644E0802C41DA402D6E
:101BA0003FDA484602F080FE0290A4EB0A0002F001
:101BB0007BFE0190049902F0D7FE8346029902F061
:101BC00027FD0390304602F087FE4FF080410090E1
:101BD00002F08CFD0290284602F066FE0190029908
:101BE00002F016FD8346039902F08AFF19D23046AF
:101BF00002F072FE4FF08041009002F077FD0290FB
:101C0000284602F051FE0190029902F0B5FF83468A
:101C1000039902F075FE04D22A4621460120FFF7FF
:101C200049F96D1E4D45B8DC641C5445B3DB42E1F7
:101C3000444616E0304606EBD071A7EB610509E09B
:101C4000802C06DA402D04DA2A4621460120FFF7CF
:101C500031F96D1C06EBD67107EB6101A942EFDA91
:101C6000641C5445E6DB26E1D04570DD4F455CDA67
:101C7000A8EB0A0002F018FE8346A7EB090002F069
:101C800013FE5946029002F031FD0490444649E0AB
:101C90003D4644E0802C41DA402D3FDA484602F0D0
:101CA00003FE0290A4EB0A0002F0FEFD01900499ED
:101CB00002F05AFE8346029902F0AAFC03903046D5
:101CC00002F00AFE4FF08041009002F00FFD0290FA
:101CD000284602F0E9FD0190029902F099FC834642
:101CE000039902F00DFF19D2304602F0F5FD4FF0D6
:101CF0008041009002F0FAFC0290284602F0D4FDE8
:101D00000190029902F038FF8346039902F0F8FD32
:101D100004D22A4621460120FFF7CCF86D1C4D4520
:101D2000B8DB641E5445B3DCC5E04F455DDDA8EB70
:101D30000A0002F0B9FD8346A7EB090002F0B4FDEA
:101D40005946029002F0D2FC049044464AE068E012
:101D50003D4644E0802C41DA402D3FDA484602F00F
:101D6000A3FD0290A4EB0A0002F09EFD01900499ED
:101D700002F0FAFD8346029902F04AFC03903046D5
:101D800002F0AAFD4FF08041009002F0AFFC0290FB
:101D9000284602F089FD0190029902F039FC834641
:101DA000039902F0ADFE19D2304602F095FD4FF0D6
:101DB0008041009002F09AFC0290284602F074FDE7
:101DC0000190029902F0D8FE8346039902F098FD33
:101DD00004D22A4621460120FFF76CF86D1E4D45BE
:101DE000B8DC641E5445B3DC65E0444616E030467A
:101DF00006EBD071A7EB610509E0802C06DA402DD7
:101E000004DA2A4621460120FFF754F86D1C06EB40
:101E1000D67107EB6101A942EFDA641E5445E6DC96
:101E200049E04F451BDD304606EBD071A8EB61045D
:101E30000EE03D4609E0802C06DA402D04DA2A4601
:101E400021460120FFF736F86D1E4D45F3DC641C7A
:101E500006EBD67108EB6101A142EADA2BE04F45AF
:101E60001BDA304606EBD071A8EB61040EE03D466C
:101E700009E0802C06DA402D04DA2A4621460120AA
:101E8000FFF718F86D1C4D45F3DB641C06EBD671AB
:101E900008EB6101A142EADA0DE0B34606EBDB7222
:101EA000A7EB620106EBD672A8EB6200334632461E
:101EB0000296FFF7CDFD05B0BDE8F08F2DE9FF4F8D
:101EC00089B00D4616461F46DDF858800024A1460D
:101ED000002008900790304600F090FB06903046B6
:101EE00000F021FB824600BF6DE0C8F1000002F067
:101EF000DFF800224FF08043CDE9020101F080FFBE
:101F0000CDE9040101F096FE814644E04946504681
:101F100002F02AFD0590204602F0DEFC02900699B0
:101F200002F022FD8346099802F0BEFC5946039058
:101F300002F06EFB0490059902F01EFE08904946DF
:101F4000069802F011FD0590204602F0C5FC5146AE
:101F5000029002F009FD0490284602F0A5FC0390CF
:101F6000049902F055FB8346059902F051FB079056
:101F7000079802F07DFC8346089802F079FC5A46E7
:101F8000014605900120FEF795FF4FF07E5148462F
:101F900002F03EFB8146404602F0A1F800224FF0DD
:101FA0008043CDE9000101F02BFFCDE90401484653
:101FB00002F002FBCDE90201DDE9042302F0A2F800
:101FC000A4D3601CC4B2BC428FDB0DB0BDE8F08F5F
:101FD0002DE9F04107460D4614464FF00008002653
:101FE000A7EB040818E02E1B11E0A8EB0700404304
:101FF000711B721B01FB020104FB04F0401C8142B7
:1020000004DC324641460120FEF754FF761C2819B5
:10201000B042EADA08F1010838194045E3DABDE8D0
:10202000F0812DE9F04380460D4616461C464FF0E0
:1020300000090027204604EBD071C1F34704A8EB48
:102040000600A0EB040926E0A81B071B1DE0A9EB76
:1020500008004043791B7A1B01FB02013019404301
:10206000401C814210DCA9EB08004043791B7A1B1D
:1020700001FB0201301B4043401E814204DB3A4613
:1020800049460120FEF716FF7F1CA8192044B842DC
:10209000DDDA09F1010908EB060020444845D3DAEE
:1020A000BDE8F0832DE9F04705460E4691469A4675
:1020B000089C0027B846204604EBD071C1F34704C2
:1020C0002F1B21E0A6EB040818E02819401CB84299
:1020D0000DDC05EB0900001BB84208DD3019401C7F
:1020E000404504DC06EB0A00001B404504DC424688
:1020F00039460120FEF7DEFE08F1010806EB0A0072
:1021000020444045E1DA7F1C05EB09002044B84239
:10211000D8DABDE8F0872DE9F04F8BB007460C46C2
:1021200093469946159D00200A9000260990824604
:10213000804608900790BA46A3E0A0469CE005F0D0
:10214000040028B10BEB0700A0EB0A00089001E0A7
:10215000CDF820A0002683E005F0080030B109EB9F
:102160000400A0EB0800801B079002E008EB0600CB
:1021700007900A991498405CB04000F080000990E4
:1021800005F0010010B1099800B967E005F0020000
:1021900028B1099808B9012000E00020099005F055
:1021A000100018B905F02000002851D00799081B2D
:1021B00002F07AFB0290D2488169029802F0D4FBC7
:1021C00004900899C81B02F06FFB0090CC4841694D
:1021D000009802F0C9FB0290384602F065FB0190BE
:1021E000029902F015FA0390049902F0C5FC0690DA
:1021F0000799081B02F058FB0290C14841690298F8
:1022000002F0B2FB04900899C81B02F04DFB00904D
:10221000BB488169009802F0A7FB0290204602F0BB
:1022200043FB0190029902F0F3F90390049902F044
:10223000EFF90590059802F01BFB0490069802F058
:1022400017FB03900146049A0998FEF733FE04E059
:10225000DDE907210998FEF72DFE00BF701CC6B20C
:10226000082E04DAA9EB0800B0423FF775AF0A98D0
:10227000401C0A9008F10808C845FFF660AF0AF153
:10228000010ADA45FFF659AF0BB0BDE8F08F2DE932
:10229000F04F8BB007460D4693469946169E002098
:1022A0000A90002409908246804608900790BA461A
:1022B000ABE0A846A4E006F0040028B10BEB070051
:1022C000A0EB0A00089001E0CDF820A000248BE0EC
:1022D00006F0080030B109EB0500A0EB0800001B78
:1022E000079002E008EB040007900A991598405CFB
:1022F000A04000F0800009900A991498405CA0402A
:1023000000F0800000B96DE006F0010010B10998FE
:1023100000B967E006F0020028B1099808B9012069
:1023200000E00020099006F0100018B906F0200027
:10233000002851D00799481B02F0B6FA0290704865
:102340008169029802F010FB04900899C81B02F002
:10235000ABFA00906A484169009802F005FB0290D0
:10236000384602F0A1FA0190029902F051F9039067
:10237000049902F001FC06900799481B02F094FAB8
:1023800002905F484169029802F0EEFA04900899C1
:10239000C81B02F089FA009059488169009802F040
:1023A000E3FA0290284602F07FFA0190029902F0C7
:1023B0002FF90390049902F02BF90590059802F08B
:1023C00057FA0490069802F053FA03900146049AD3
:1023D0000998FEF76FFD04E0DDE907210998FEF793
:1023E00069FD00BF601CC4B2082C04DAA9EB080028
:1023F000A0423FF76DAF0A98401C0A9008F1080808
:10240000C845FFF658AF0AF1010ADA45FFF651AFA9
:102410000BB0BDE8F08F10B500F06DFC4FF44870C4
:1024200000F0D5FC0021AE20FEF74CFC0021084650
:10243000FEF748FC00211020FEF744FC002140205C
:10244000FEF740FC0021B020FEF73CFC002181207B
:10245000FEF738FC0021FF20FEF734FC0021A1200C
:10246000FEF730FC0021A620FEF72CFC0021A8205E
:10247000FEF728FC00213F20FEF724FC0021C820A5
:10248000FEF720FC0021D320FEF71CFC00210846AB
:10249000FEF718FC0021D520FEF714FC0021802057
:1024A000FEF710FC0021D820FEF70CFC00210520CF
:1024B000FEF708FC0021D920FEF704FC0021F120E2
:1024C000FEF700FC0021DA20FEF7FCFB00211220C1
:1024D000FEF7F8FB0021DB20FEF7F4FB00213020A3
:1024E000FEF7F0FB00218D20FEF7ECFB002114200D
:1024F000FEF7E8FB0021AF20FEF7E4FB10BD000073
:102500000005002070B506460C464FF07E5506E0EB
:102510002946304602F028FA0546601EC4B2002C57
:10252000F6DC284670BD2DE9F0410446002504E0A4
:102530006649204602F06CF804460021204602F06D
:10254000DFF9F5D304E06149204602F015FB0446AB
:102550005E49204602F0D4FAF5D35D49204602F0E8
:10256000CFF90BD84FF08041204602F0FDF9064626
:1025700002F07EF9574951F820503CE05649204678
:1025800002F0BEF90FD85449204602F0EAFA074695
:102590004FF0804102F0E8F9064602F069F94D4932
:1025A00051F8205027E04D49204602F0A9F911D8F2
:1025B0004949204602F0E0FA07464FF0804102F018
:1025C000D3F9064602F054F9424951F8200080F050
:1025D000004510E03D49204602F0C3FA07464FF09F
:1025E000804102F0C1F9064602F042F9394951F83A
:1025F000200080F000452846BDE8F08170B5044613
:102600003349204602F004F80546FFF78CFF70BD01
:102610002DE9F04105460024A0460021284602F09D
:102620006FFA0DD24FF00108284601F0C5FF0646AB
:102630002B4A2C4B01F0A0FE18D22548BDE8F081B2
:102640000021284602F05CF90ED24FF0000885F018
:102650000045284601F0B0FF0646214A224B01F012
:1026600051FD03D22148E9E70020E7E700241FE0FD
:10267000184850F82410284602F042F916D8B8F14C
:10268000010F08D1204602F027F906464FF080419D
:1026900002F02CF8D2E7204602F01EF980F0004646
:1026A0004FF08041304602F021F8C7E7601CC4B209
:1026B000B52CDDDB0848C1E770B504462046FFF7BE
:1026C000A7FF0546024902F04CFA70BD0000B44372
:1026D0000000B442E4560008000034430000874381
:1026E0001EA7E8482EFFEF3F2EFFEFBF0000B4C249
:1026F00030B500248461C461F94C2478641CE4B2D0
:10270000F74D2C70047041600272C360039C046139
:10271000049D45610478012C0CDDF24C2468846131
:10272000F14C2468C461EF4C2468E061EE4C2468ED
:10273000A06101E0EC4C2060EA4C206030BD70B537
:102740000246E84D28682D682B780024E64D2D6858
:1027500005B970BDE44D2D68E24E3668B54209D129
:10276000E14D2D682D78954203D1DF4D2D68ED6840
:102770002960EEE70BE085692D789D4200DD01249C
:10278000934202D1C568296003E080690378002C78
:10279000F1D000BF00BFDCE72DE9FF5F0446D2485F
:1027A000056800680078039000260027002002904A
:1027B000102C01D1102700E00827CB48006808B989
:1027C000BDE8FF9FC8480068C649096888427ED1B5
:1027D000C5490968486902F04BF88046C249096852
:1027E000086902F045F8814601200090BE48006863
:1027F0002346414642684846FEF7A6FFBA490968A3
:10280000486902F035F88246B7490968086902F05C
:102810002FF88346B4490968486801F0B8F9A04622
:1028200004EBD871491001FB00B000F1040901204C
:102830000090AD480068027A234651464846FEF7AC
:10284000C6FBA9490968486902F012F88246A64900
:102850000968086902F00CF88346A34909684868CA
:1028600001F095F904EBD871491001FB00B000F1BB
:102870000C09012023463A22514600904846FEF7B3
:10288000A6FB99490968486901F0F2FF824696491A
:102890000968086901F0ECFF8346934909684868B4
:1028A00001F075F904EBD871491001FB00B000F19B
:1028B00018090120CDE900408B480068C068042356
:1028C000514602684846FEF7ABFD79E7FFE778E03E
:1028D000E86901780398814201DA01200290824977
:1028E0000968486901F0C4FF07FB0608286901F080
:1028F000BFFF8146012000902346414648466A6852
:10290000FEF722FF78490968486901F0B1FF07FB2B
:102910000609286901F0ACFF8346686801F037F9C1
:10292000A04604EBD871491001FB00B000F1040A85
:10293000012000902A7A234649465046FEF747FB7D
:1029400069490968486901F093FF07FB060928698E
:1029500001F08EFF8346686801F019F904EBD87125
:10296000491001FB00B000F10C0A012023463A2275
:10297000494600905046FEF72AFB5B4909684869C2
:1029800001F076FF07FB060A286901F071FF834614
:10299000686801F0FCF804EBD871491001FB00B045
:1029A00000F118090120CDE90040E86804235146F0
:1029B00002684846FEF734FDED6928780390701CE4
:1029C000C6B20298002883D000BFF9E62DE9F0478F
:1029D00006460D4643480468006807784FF0000833
:1029E0004148006808B9BDE8F0873F4800683D49A4
:1029F000096888421AD1304601F056FF81463A48AC
:102A000000680169484601F003FE3749096808611A
:102A1000284601F049FF814633480068416948462D
:102A200001F0F6FD304909684861DCE717E0A0696C
:102A30000078B84201DD4FF00108304601F034FF64
:102A40008146216901F0E4FD2061284601F02CFF58
:102A50008146616901F0DCFD6061A4692778B8F105
:102A6000000FE4D000BFBEE730B501461D4C206822
:102A70002468227800231C4C246804B930BD1A4C09
:102A80002468184D2D68AC420CD1174C246824786A
:102A90008C4206D10024124D2C70124D2C60124D28
:102AA0002C60EBE724E084692478944200DD012364
:102AB0008A421BD10C4C2468A04203D10A4DC46940
:102AC0002C6006E0074C2468A04202D1054D8469C1
:102AD0002C60D0E90654EC61D0E90645AC6109E010
:102AE000D4000020D8000020DC000020806902789B
:102AF000002BD8D000BF00BFC0E7002003490870FA
:102B0000034908600349086070470000D4000020B2
:102B1000D8000020DC0000208B48006820F07040C6
:102B2000894908600846006840F04050086001206C
:102B3000864908608649C1F89401002083490860ED
:102B40008349C1F8940170477F48006820F07040C5
:102B50007D4908600846006840F040500860002049
:102B60007A49083908607A49C1F89C0101207749FF
:102B7000083908607649C1F89C01704710B50024F7
:102B80007148006820F070406F490860084600688E
:102B900040F00040086001206C49086000F0F3F844
:102BA00001206B49C1F8940100F0EDF807E0601CCA
:102BB000C4B2FA2C03DDFFF7C7FF012010BD634844
:102BC000803800680028F2D160490839086000BFE9
:102BD000F4E75D4A126822F070425B4B1A601A46B5
:102BE000126842F040521A600022584B083B1A60AB
:102BF000002114E0802803DB0122544B1A6002E01C
:102C00000022524B1A604206100E01224F4B083B25
:102C10001A6000224E4BC3F894214A1CD1B20829F5
:102C2000E8DB7047002049490839086046480068D9
:102C300020F07040444908600846006840F0405069
:102C4000086000204249C1F89C0101203F49083931
:102C5000086000203E49C1F89401704700203B49BC
:102C6000083908603848006820F07040364908602C
:102C70000846006840F04050086001203449C1F81F
:102C80009C0132490839086000203149C1F894019B
:102C9000704770B5054600242B48006820F070404E
:102CA000294908600846006840F000400860002696
:102CB00017E00020254908390860022000F063F879
:102CC00001202349C1F894016006040E1F48803892
:102CD000006808B1601CC4B2012000F054F8701CF8
:102CE000C6B2082EE5DB15B9FFF7B8FF01E0FFF724
:102CF00099FF204670BD08B50121042000F0DEFCDC
:102D00002020ADF8000010208DF8030003208DF87E
:102D1000020069460C4800F015FA20210A4800F02C
:102D2000BEFA8020ADF8000010208DF803000320CB
:102D30008DF802006946044800F004FA8021024838
:102D400000F0ADFA08BD0000000801409C012142DE
:102D50000000214210B56FF0040000F074F92E4815
:102D600000682E49B0FBF1F02D4908700846007844
:102D700000EB4001C1EBC0104FF6FF7101EAC0004B
:102D80002849088010BD0146254A12784A434FF071
:102D9000E0235A6100229A611A46126942F0010248
:102DA0001A6100BF4FF0E022106900F001021AB171
:102DB00000F48032002AF5D04FF0E022126922F0B0
:102DC00001024FF0E0231A6100229A617047014628
:102DD000144A12884A434FF0E0235A6100229A6154
:102DE0001A46126942F001021A6100BF4FF0E02258
:102DF000106900F001021AB100F48032002AF5D007
:102E00004FF0E022126922F001024FF0E0231A6134
:102E100000229A61704700000000002000127A0032
:102E2000E0000020E2000020014600BF704700BF24
:102E3000494A128802F04002002AF9D0C2B2464B39
:102E40001B1D1A80704710B586B00446012144F25C
:102E5000050000F033FC4FF40070ADF814000320BF
:102E60008DF8160018208DF8170005A93B4800F0D2
:102E700069F94FF48060ADF8140004208DF8170054
:102E800005A9364800F05EF925208DF800000320E2
:102E90008DF801008DF8020001208DF803006846CE
:102EA00000F087F801940020ADF80800ADF80A00A2
:102EB000ADF80C00ADF810000C20ADF80E0001A923
:102EC000254800F0A2FC012240F22551224800F0E2
:102ED00034FD0121204800F024FD06B010BD10B5DE
:102EE00040F225511C4800F00DFE10B31A4800F0C6
:102EF00089FDC4B21A48008800F40040C8B91848D7
:102F0000008800F4804060B10A2C03D000201449EE
:102F1000088020E01248008840F4004010490880F2
:102F200019E00D2C06D10E48008840F480400C4971
:102F3000088010E00A480088C0F30D0009490C54CD
:102F400007480088401C0649088008460088C728B2
:102F500001DD0020088010BD00380140000801405C
:102F6000E80000201C050020094880470948004768
:102F7000FEE7FEE7FEE7FEE7FEE7FEE7FEE7FEE729
:102F8000FEE7FEE704480549054A064B7047000086
:102F9000DB0400083101000848060020480C00202E
:102FA000480800204808002031490143314A116097
:102FB000704770B5002100230F22C47804B32D4C54
:102FC000246804F4E064C4F5E064210AC1F1040358
:102FD000CA40447804FA03F184781440214309017B
:102FE000254C0678A155047804F01F050124AC4057
:102FF00005786D11AD0005F1E025C5F8004109E047
:10300000047804F01F050124AC401C4D06787611AD
:1030100045F8264070BD1A4A0A400243154B1B1F53
:103020001A60704739B1134A121D12680243114BDE
:103030001B1D1A6006E00F4A121D126882430D4BD9
:103040001B1D1A607047042808D14FF0E021096960
:1030500041F004014FF0E022116107E04FF0E02160
:10306000096921F004014FF0E0221161704700006E
:103070000000FA050CED00E000E400E080E100E073
:1030800080FFFF1F10B50446CC48844208D10121BF
:10309000042000F02DFB0021042000F029FB46E075
:1030A000C748844208D10121082000F021FB0021FB
:1030B000082000F01DFB3AE0C248844208D10121FB
:1030C000102000F015FB0021102000F011FB2EE075
:1030D000BD48844208D10121202000F009FB0021D5
:1030E000202000F005FB22E0B848844208D10121ED
:1030F000402000F0FDFA0021402000F0F9FA16E02F
:10310000B348844208D10121802000F0F1FA002167
:10311000802000F0EDFA0AE0AE48844207D1012198
:10312000801500F0E5FA0021A01500F0E1FA10BDCD
:1031300010B50121084600F0DBFA0021012000F063
:10314000D7FA10BD2DE9F0410246002500260020E7
:1031500000230024002791F803C00CF00F0591F81C
:1031600003C00CF0100CBCF1000F03D091F802C0AA
:103170004CEA050591F800C0BCF1000F31D014688D
:1031800000202BE04FF0010C0CFA00F3B1F800C066
:103190000CEA03069E4220D183004FF00F0C0CFA7C
:1031A00003F7BC4305FA03FC4CEA040491F803C09E
:1031B000BCF1280F06D14FF0010C0CFA00FCC2F84C
:1031C00014C00AE091F803C0BCF1480F05D14FF0DC
:1031D000010C0CFA00FCC2F810C0401C0828D1D326
:1031E0001460B1F800C0BCF1FF0F34DD546800205A
:1031F0002EE000F1080C4FF0010808FA0CF3B1F8CA
:1032000000C00CEA03069E4221D183004FF00F0C50
:103210000CFA03F7BC4305FA03FC4CEA040491F8EA
:1032200003C0BCF1280F05D100F1080C08FA0CF816
:10323000C2F8148091F803C0BCF1480F07D100F127
:10324000080C4FF0010808FA0CF8C2F81080401C76
:103250000828CED35460BDE8F0814FF6FF7101809D
:10326000022181700421C1707047024600209368DA
:103270000B400BB1012000E0002070470146886838
:1032800080B2704702460020D3680B400BB101208A
:1032900000E0002070470146C86880B270470161B5
:1032A0007047416170470AB1016100E041617047B8
:1032B000C16070474FF480320A438261816182614C
:1032C00082698269704702460020434B18684FF6B6
:1032D0008073184040EA021008433F4B1860704763
:1032E0003E49C8617047F0B50A460023002400211A
:1032F000002500F00046B6F1004F02D1364EF169CC
:1033000001E0354E7168C0F3034583B200F4401606
:10331000B6F5401F08D121F070612F4E766826F077
:1033200070662D4F7E6012E000F48016B6F5801FA7
:1033300006D1032606FA05F4A14341F0706106E0C8
:10334000460D360103FA06F6B14341F0706122B131
:10335000460D360103FA06F6314300F00046B6F199
:10336000004F02D11C4EF16101E01B4E7160F0BDB7
:1033700030B500228B071C0F0F2303FA04F2164B03
:1033800008338C1053F824309343134C08348D10B9
:1033900044F8253023468C1053F824308C07240F32
:1033A00000FA04F423430C4C08348D1044F8253003
:1033B00030BD0A49DC310860704700000008014058
:1033C000000C0140001001400014014000180140B1
:1033D000001C01400020014000000140000020428C
:1033E000DF48006840F00100DD4908600846406899
:1033F000DC490840DA49486008460068DA49084074
:10340000D74908600846006820F480200860084614
:10341000406820F4FE0048604FF41F008860704749
:10342000CF49096821F48031CD4A116011460968FD
:1034300021F480211160B0F5803F03D0B0F5802FDA
:103440000ED106E0C649096841F48031C44A1160D2
:1034500007E0C349096841F4A021C14A116000E0B6
:1034600000BF00BF704710B50146002200230020B6
:103470004A11012A02D1BA4C236806E0022A02D17D
:10348000B74C236A01E0B64C636A01F01F020124C5
:1034900094401C400CB1012000E0002010BD38B564
:1034A000002000900024002500BF3120FFF7DBFF43
:1034B00005460098401C00900098B0F5A06F01D020
:1034C000002DF2D03120FFF7CEFF08B1012400E03B
:1034D0000024204638BD01460020A14A106820F093
:1034E000F80040EAC10010607047A04908607047CA
:1034F000024600209A4B586820F47C1042EA0103EF
:103500001843974B586070479849086670470146C2
:103510000020934A506820F0030008435060704731
:103520008F48406800F00C007047014600208C4A2C
:10353000506820F0F00008435060704701460020BA
:10354000874A506820F4E0600843506070470146A5
:103550000020834A506820F4605040EAC100506067
:10356000704729B17E4A527A02437D4B5A7204E079
:103570007B4A527A82437A4B5A7270477B49D831E0
:103580000860704701460020754A506820F44040AA
:103590000843506070470021714A20321170704A10
:1035A00082F82010012802D004280AD104E0012169
:1035B0006B4A2032117005E00521694A20321170F2
:1035C00000E000BF00BF7047694908607047644968
:1035D000096A0143624A11627047654944390860CB
:1035E000704730B500210022002400235C4D6D6837
:1035F00005F00C0121B1042905D0082923D105E0EB
:103600005C4D056022E05B4D05601FE0544D6D6828
:1036100005F47012524D6D6805F48034022505EBF7
:1036200092421CB9544D554305600BE04C4D6D68FA
:1036300005F400351DB1504D5543056002E04D4D78
:103640005543056002E04B4D056000BF00BF444D8F
:103650006D6805F0F0010909484D6B5C0568DD40B7
:1036600045603F4D6D6805F4E061090A434D6B5CB0
:103670004568DD4085603A4D6D6805F46051C90AC2
:103680003E4D6B5C4568DD40C560354D6D6805F4A9
:103690004041890B3A4D6B5CC568B5FBF3F505619C
:1036A00030BD29B12E4A526902432D4B5A6104E0C4
:1036B0002B4A526982432A4B5A61704729B1284AE2
:1036C00092690243264B9A6104E0254A926982433B
:1036D000234B9A61704729B1214AD2690243204B9A
:1036E000DA6104E01E4AD26982431D4BDA617047F9
:1036F00029B11B4AD2680243194BDA6004E0184A28
:10370000D2688243164BDA60704729B1144A1269B5
:103710000243134B1A6104E0114A12698243104BB1
:103720001A61704712494039086070470F49C864F0
:1037300070470B49C87170470948406A40F0807073
:1037400007494862704701460020054A92680A40CE
:103750000AB1012000E000207047014988727047DB
:10376000001002400000FFF8FFFFF6FE000042429A
:103770008004424200127A0000093D00EA00002065
:10378000FA00002010B50446FB48844209D101210B
:103790008803FFF7ADFF00214FF48040FFF7A8FF3B
:1037A00032E0F648844209D101214804FFF7ADFF19
:1037B00000214FF40030FFF7A8FF25E0F0488442D5
:1037C00009D101218804FFF7A0FF00214FF48020D8
:1037D000FFF79BFF18E0EB48844209D10121C804A0
:1037E000FFF793FF00214FF40020FFF78EFF0BE05F
:1037F000E548844208D101210805FFF786FF002132
:103800004FF48010FFF781FF10BD2DE9F04786B01F
:1038100005460E460024A24600BFA1460027B089F7
:1038200000B100BF2F462C8A4CF6FF700440F08890
:1038300004432C82AC894EF6F3100440B0883189E1
:103840000843718908430443AC81AC8A4FF6FF40BA
:103850000440B0890443AC8201A8FFF7C2FEC64809
:10386000874202D1DDF810A001E0DDF80CA0A889A4
:1038700000F4004040B10AEBCA0000EB0A103168C6
:103880004900B0FBF1F807E00AEBCA0000EB0A10B0
:1038900031688900B0FBF1F86420B8FBF0F0040156
:1038A0002009642101FB1089A88900F4004040B17F
:1038B000322000EBC900B0FBF1F000F00700044338
:1038C00008E0322000EB09106421B0FBF1F000F0B9
:1038D0000F0004432C8106B0BDE8F0874FF4165169
:1038E000016000218180C18001810C214181002182
:1038F0008181704710B502460020108A4FF2FF0305
:1039000018400B884C8823438C882343CC8823435E
:103910001843108210BD0021018041808180C18048
:10392000704721B1828942F40052828104E0828989
:103930004DF6FF731A4082817047F0B503460024AC
:1039400000260025002040F66A17B94200D100BFCA
:103950001846C1F3421401F01F06012707FA06F5C5
:10396000012C01D10C3004E0022C01D1103000E018
:1039700014301AB107682F43076002E00768AF43AD
:103980000760F0BD1AB1838A0B43838202E0838A09
:103990008B4383827047028A4FF6F0731A4002828B
:1039A000028A0A430282704782894FF2FF731A40EB
:1039B000828182890A438281704721B1828942F0E3
:1039C0000202828104E082894FF6FD731A408281EF
:1039D0007047028A4FF6DF731A400282028A0A4356
:1039E0000282704721B1028A42F48042028204E0DE
:1039F000028A4BF6FF731A4002827047C1F3080235
:103A00008280704701468888C0F30800704781892A
:103A100041F0010181817047028BD2B20283028B97
:103A200042EA012202837047028B02F47F42028342
:103A3000028B0A430283704721B1828A42F020023E
:103A4000828204E0828A4FF6DF731A4082827047D6
:103A500021B1828A42F01002828204E0828A4FF60B
:103A6000EF731A408282704721B1828A42F00802C5
:103A7000828204E0828A4FF6F7731A40828270478E
:103A800021B1828942F40042828103E08289C2F33B
:103A90000E028281704721B1828A42F400628282E2
:103AA00004E0828A4FF2FF731A4082827047828A52
:103AB0004FF6FB731A408282828A0A4382827047E1
:103AC00021B1828A42F00202828204E0828A4FF6A9
:103AD000FD731A408282704702460020B1F5007FD4
:103AE00000D100BF13880B400BB1012000E0002083
:103AF000704701F40072B2F5007F00D100BFCA43E5
:103B00000280704770B50246002400230025002083
:103B100040F66A16B14200D100BFC1F3421501F070
:103B20001F03012606FA03F3012D02D196893340C3
:103B300006E0022D02D1168A334001E0968A334016
:103B40000C12012606FA04F41688344013B10CB1A5
:103B5000012000E0002070BD10B50022002340F6D7
:103B60006A14A14200D100BF0A1201249440A3B2FA
:103B7000DC43048010BD00000038014000440040D8
:103B800000480040004C004000500040704710B515
:103B9000431C02E010F8011B71B18107FAD14FF00C
:103BA000013202C88C1A8C4314EAC211F9D0C01A2F
:103BB0000A0603D0C01E10BDC01A10BD0A0401D0F1
:103BC000801E10BD0902FCD0401E10BD704770471A
:103BD00070477047754600F029F8AE460500694603
:103BE000534620F00700854618B020B5FFF7CAF904
:103BF000BDE820404FF000064FF000074FF00008EE
:103C00004FF0000B21F00701AC46ACE8C009ACE86E
:103C1000C009ACE8C009ACE8C0098D46704704464D
:103C2000AFF300802046FCF7CAFA00000048704756
:103C3000E405002021F00042A2F16052B2F5801F9D
:103C400001F0004328BFD2F17F6C0BD95FEA001C62
:103C500043EAC20242EB507018BF704728BF20F001
:103C600001007047B2F5801FBCBF184670474FEA8D
:103C7000410C1CF5001F02D2084600F03CBF70B595
:103C800000F026FB00000089FFF7F6BF4FF0004070
:103C9000A0F580007047000010B591EA030F48BFFF
:103CA00083F0004300F1A683841A71EB030C05D264
:103CB000121943EB0C03001B61EB0C01DFF824E14C
:103CC0004FEA1154A4EB135C1EEA430F18BF9EEA9F
:103CD000445F73D023EA0E03DCF1200E21EA045185
:103CE00043F4801332D322FA0CFE10EB0E0023FAB9
:103CF0000CFE41EB0E01CCF1200E03FA0EFE10EB90
:103D00000E0051F10001B1F5801FCCF1200E32D22E
:103D100001EB045112FA0EF2BDE8104058BF704793
:103D2000401C38BF5FEA420218BF7047002814BF2A
:103D300020F0010041F100014FEA410313F5001F9B
:103D400038BF7047A1F1C04100F010BB012A43EB1E
:103D50000302ACF1200CDCF11F0E32BF4FF0000E5D
:103D600023FA0CF310EB030041EB0451B4EB115FA9
:103D7000D0D0A1EB045101F5801149085FEA300071
:103D800001EB04510ED350F1000038BF12FA0EFEC1
:103D900008D1BDE81040C9E7401C38BF5FEA4202C5
:103DA000CAD1C3E7BDE810404FEA410313F5001F35
:103DB00038BF7047A1F1C04100F0D8BA9EEA445F15
:103DC00008D011EA5E0FBDE8104004BF01F00041C9
:103DD00000207047BDE8104070B500F079FA00BFD0
:103DE00064FBBE3E0000E0FF491058BFC1F14041F6
:103DF0005B1058BFC3F140438B42EFF30080704724
:103E00002DE9C04130B4DFF8A0C23CEA111418BF5C
:103E10003CEA131400F0EC8081EA03051CEA11145B
:103E200044EAD57418BF1CEA131500F0C780A4EB50
:103E300005044FF0004545EAC12145EAC32341EAA4
:103E4000505143EA525304F17F74994204F500340F
:103E50004FEAC0204FEAC22208BF904200F09C8087
:103E60004FEA13650FF24016765D4FEA134506FBE5
:103E700005F7C7F1807706FB07F74FEAD737A7FBAF
:103E800003687642C8F58038A7FB06CE38BFA8F194
:103E9000010807FB08E64FF0000EA6FB028CE6FBCC
:103EA00003CEDCF1000CCEF1004E38BFAEF1010EB6
:103EB000A6FB0C584FF000074FF00005E6FB0E87FD
:103EC000A1FB08C6A0FB07CE16EB0E0645F10005C8
:103ED000E1FB076515F1E04E7EBFA4F580345FEA93
:103EE00046066D4116F1800745F100054FEA172798
:103EF0004FEA066647EA0567A6F1DE46B6F1805F3F
:103F00004FEA15251FD9384624F0010C05EBC47182
:103F1000BCF1FE6F01EB0C1102D8F0BCBDE80081D2
:103F200024425CBF01F5801E9EEAC47F02D4F0BC2F
:103F3000BDE80081244238D4F0BCA1F1C041BDE805
:103F4000004100F013BA4FEAD22242EA43524FEA4C
:103F5000D323A7FB02864FEAD02040EA415007FB5B
:103F600003661EEA0E0F4FEAD12105FB026658BF19
:103F7000A6EB0056B6EB00564FEA520E4EEAC37E51
:103F800018EB0E0E56EB530EBDD518EB02085E4132
:103F90007F1C55F10005B6E74FF480154FF0000780
:103FA0004FF000064FF00008ADE7F0BC4FF0000006
:103FB00001F1C04101F00041BDE8008111EA0C1F90
:103FC0000CEA131500D00CE013EA0C1F00F025805A
:103FD0004FF00000F0BC81EA030101F00041BDE8B0
:103FE0000081F0BCBDE8004181EA030100F0BEB9E8
:103FF000F0BCBDE8004170B500F06AF9097EFC3EF6
:1040000000F007B881EA03014FF0000001F0004121
:10401000704781EA030100F0A9B9F0BCBDE8004196
:104020004FF0000021497047FFFDFBF9F7F5F4F26E
:10403000F0EEEDEBE9E8E6E4E3E1E0DEDDDBDAD843
:10404000D7D5D4D3D1D0CFCDCCCBCAC8C7C6C5C4A1
:10405000C2C1C0BFBEBDBCBBBAB9B8B7B6B5B4B3B8
:10406000B2B1B0AFAEADACABAAA9A8A8A7A6A5A4A3
:10407000A3A3A2A1A09F9F9E9D9C9C9B9A99999867
:104080009797969595949393929191908F8F8E8E0A
:104090008D8C8C8B8B8A8989888887878685858497
:1040A00084838382828181800000FF070000F87F83
:1040B00010F0004248BF4042B0FA80F310FA03F11A
:1040C0000AD0C3F11D0303F580634FEA415002EBB0
:1040D000035202EBD12170474FF000007047B0FA55
:1040E00080F310FA03F10AD0C3F11D0303F58063D6
:1040F0004FEA41504FEA035202EBD12170474FF093
:104100000000704751EA030C17D41CF5801F58BFFC
:10411000BCF5801F00F10680994218BF704708BFA8
:104120009042704707D711F5801F58BF13F5801FC5
:1041300019D499427047894270471CF5801F08D5F1
:10414000BCF5801FF7D58B4218BF704708BF82426D
:1041500070474FF4001C1CEB410F38BF1CEB430FA2
:1041600001D28B42704770B500F0B2F8922449003A
:104170004FF000514FF08053FFF736BEDFF848C1D3
:1041800070B51CEA111E1EBF1CEA13159EEA0C0F27
:1041900095EA0C0F00F06F8081EA030423EA4C13C8
:1041A0004EEAD47E21EA4C1141F4801143F480138D
:1041B000AE44A1FB024CA0FB0365AEF17F7E361935
:1041C00055EB0C05A1FB034C4CF10003A0FB021CBA
:1041D00016EB0C06654153F10003094218BF46F087
:1041E000010613F4007F0BD14FEA03314FEA05308B
:1041F000340341EA155140EA16506FF003020AE019
:104200004FEAC3214FEAC520F40241EA555140EA82
:1042100056506FF0020202EB2E4201EB025585EA86
:10422000CE710AD05FEA440C18BF24F0004450F16C
:10423000000041F1000120EAD47040F2FE7C6245AA
:1042400000D270BDA84214BF4FF080444FF04044EC
:10425000002E08BF0024BEF1806FA8BFA1F1C041AD
:10426000BDE8704080F282804FF0000001F1C04153
:1042700001F0004170479EEA0C0F0CEA131518BFBD
:1042800095EA0C0F06D04FF0000081EA030E0EF005
:10429000004170BD00F01CF88900013E00F007B835
:1042A00000F009B84FEA430C5FEA5C5C08D081EA91
:1042B000030100F05BB84FEA410C5FEA5C5CF6D1A9
:1042C0004FF00000014970470000FF070000F87F31
:1042D0000EF1020E2EF0030E5EF8046B364205D48A
:1042E000012A43EB030515F5001F12D8012841EB05
:1042F000010C1CF5001F0CD80ED14FEAD17C15F52E
:10430000001F0CEB4C0C0CF1020C08BF4CEBD37CE7
:1043100004E04FF0080C01E04FEAD37C0CEB4C05B5
:1043200026FA05F606F00706B6F1040C06D20EEBE7
:10433000860CBDE870404CF0010C6047DFE80CF0E3
:10434000090B02024FF000414FF00000A1F50021DF
:1043500070BD19461046012851EB010418BFD4F571
:10436000001484BF002001F0004170BD0808A0F5D2
:1043700000114FEA3101704753EA010C17D41CF5C4
:10438000801F58BFBCF5801F00F106808B4218BF0C
:10439000704708BF8242704707D713F5801F58BF88
:1043A00011F5801F19D48B4270479B4270471CF552
:1043B000801F08D5BCF5801FF7D5994218BF7047FC
:1043C00008BF904270474FF4001C1CEB430F38BFEE
:1043D0001CEB410F01D2994270470FB40CBC03BCD7
:1043E000FFF7C1BE10B591EA030F48BF83F0004349
:1043F0003FF55AAC841A71EB030C07D212198CF0FA
:10440000004C43EB0C03001B61EB0C01DFF8A4E153
:104410004FEA1154A4EB135C1EEA430F18BF9EEA47
:10442000445F00F0B08023EA6E03524221EA045157
:10443000C3EB6E0338BF5B1EDCF1200E25D322FADE
:104440000CFE10EB0E0043FA0CFE41EB0E01CCF11A
:10445000200E03FA0EFE10EB0E0051F10001CCF11C
:10446000200E29D412FA0EF201EB0451BDE81040DF
:1044700058BF7047401C1CBFB2F1004F7047002866
:104480000CBF491C20F00100704712EB020E43EBF9
:10449000030218BF4FF0010E4EEA4202ACF1200CAD
:1044A000DCF11E0E54D943FA0CFE10EB0E0051F154
:1044B000FF31CCF11E0ED5D50EF1010E12FA0EFE13
:1044C000404141EB010101EB445C5FEA5C5C10D9C7
:1044D00010EBDE7001EB045138BFBEF1004FBDE8B8
:1044E000104018BF704700280CBF491C20F0010085
:1044F000704730D24FEAD42C11F5001124F4006437
:104500001BD0B1FA81F20B3AA41AA41ED2F12003F7
:10451000914030FA03F31943904001EBCC71002C29
:1045200001EB0451BDE81040A8BF704701F1C04144
:104530004FF0000001F000417047B0FA80F310FA2C
:1045400003F100D110BDE41A173C4805C90AE4E79D
:1045500001EB045110BD491001EB0451BDE81040BE
:104560004FEA300002E04FF0000170474A0008BFF8
:104570000042F8D0B2F5001F28BF704701F000419B
:104580004FF0000070479EEA445F07D011EA5E0FCB
:10459000BDE8104004BF002100207047BDE8104076
:1045A00070B5FFF795FE00BF40DFF63E83F0004197
:1045B000104670470000E0FF43004FEAD30C4FEA7B
:1045C0003C0C43401FBF40070CF1605113F0FE4FFD
:1045D00070471CF0006F03D100200CF000417047C1
:1045E0000CF0004343EA507010B540EACC0000F0F4
:1045F0003CFA00BF000000924FEA0001FFF7B6BE90
:104600004FF000414FF00000A1F50021704700007D
:1046100090EA010F48BF81F0004100F1B482421AD4
:104620003CBF801A89184FEAD0524FF07F4C1CEAE9
:10463000410FA2EBD15318BF9CEA026F00F03B8000
:104640004FF0004C4CEA00204CEA012121FA03FC17
:1046500010EB0C0C1ED202F1FF325FEA1C2040EB83
:10466000C25038BF70471CF07F0F4FEA400C18BF94
:10467000BCF17F4F38BF7047C3F12003994008BF9A
:1046800020F00100BCF17F4F38BF7047A0F1C0405F
:1046900000F031BA4FEA3C00000A40EBC25028BF9C
:1046A0001CF0FF0F4FEA400CE6D018BFBCF17F4F63
:1046B00038BF7047EAE79CEA026F05D010EA5C0F4A
:1046C00008BF00F00040704710B500F0CEF900BF01
:1046D00064FBBE3E401058BFC0F14040491058BF77
:1046E000C1F140418142EFF3008070474FF47F0CED
:1046F0001CEAD0121EBF1CEAD11392EA0C0F93EAF7
:104700000C0F00F0858090EA010F48BF42F48072E0
:1047100040F4000C41F400002CF07F4120F07F4079
:1047200000B58142A2EB03020FF2081CACEB504E25
:10473000C0F100009EF800E04FEA4E0E00FB0EFCB8
:1047400038BF49004FEA2C1C02F5FA020CFB0EF3AD
:104750004FEACE1E4FEA112C4FEAC1210EEB635EE9
:1047600042EB22420EFB0CFC4FEA1C5300FB0311F0
:104770004FEA112C4FEA01310EFB0CFC4FEADC4CE6
:1047800000FB0C11C14228BF09184CEB03335DF844
:1047900004EB10EB410143EBC250B2F57C0F38BF84
:1047A000704729D512F0F00F1CBF00F1C04000F097
:1047B00000407047008182838485868788898B8C3E
:1047C0008D8E8F919293959697999A9C9D9FA0A27A
:1047D000A3A5A7A8AAACAEB0B2B3B5B7B9BCBEC0CA
:1047E000C2C5C7C9CCCED1D4D7D9DCDFE2E6E9EC6B
:1047F000F0F3F7FAFE0000004FEA400C0CF1807C69
:10480000BCF17E4F28BF7047B0F1C04000F073B9D3
:1048100090EA010F0CEAD11348BF42F4807262455E
:1048200038BF634507D213F47F0F16D080EA01002A
:1048300000F00040704710B500F017F9097EFC3E0B
:1048400000F005B880EA010000F00040704780EAFF
:10485000010000F0004000F04EB912F47F0F04BFD9
:104860000248704780EA010000F045B90000C07FAF
:1048700041000B0ED3F19E0208D950F400034FEA19
:10488000032323FA02F048BF4042704710B500F0FE
:10489000ECF800BF49922480002070476FF000427E
:1048A00082EA20007047000010F0004148BF4042FB
:1048B000B0FA80F310FA03F2C3F19D030BD051EA72
:1048C000C35101EB1220530638BF704700F10100BD
:1048D00008BF20F001007047B0FA80F310FA03F22D
:1048E000C3F19D030AD0D90501EB1220530638BF4E
:1048F000704700F1010008BF20F001007047000080
:1049000050EA010C00F113801CF5000F58BFBCF5F4
:10491000000F01D48842704707D710F5000F58BF29
:1049200011F5000F15D488427047894270471CF575
:10493000000F04D5BCF5000FF7D5814270474FF04A
:10494000807C1CEB400F38BF1CEB410F01D2814231
:10495000704710B500F089F8922449004FF00050DC
:104960004FF08051FFF7B6BE4FF47F0C1CEAD01217
:104970001EBF1CEAD11392EA0C0F93EA0C0F00F051
:10498000478090EA010F48BF42F480724FF0004C1C
:104990004CEA00204CEA012102EB0302A0FB0113C8
:1049A000A2F50002002918BF43F001035B0028BFF5
:1049B0004FEA330342EB22425FEA132C4CEBC25026
:1049C0002EBFBCEB436FB2F57C0F70474FEA036C10
:1049D000BCF1004F08BF20F00100B2F57C0F38BFDA
:1049E00070470BD582F0FF0212F5803FC8BF7047B9
:1049F00000F1C040D8BF00F00040704700F5000C47
:104A00005FEA4C0C48BF7047B0F1C04000F073B88B
:104A100090EA010F0CEAD11348BF42F4807262455C
:104A200038BF634504D280EA010000F000407047BF
:104A300010B500F01AF800BF8900013E00F007B879
:104A400000F009B85FEA410C5FEA1C6C08D080EA0C
:104A5000010000F050B85FEA400C5FEA1C6CF6D130
:104A60004FF00040A0F5800070470EF1020E2EF0CE
:104A7000030E5EF8044B244204D44FEA4102B2F123
:104A80007F4F11D84FEA4003B3F17F4F0CD80ED1BE
:104A90004FEAD07CB2F17F4F0CEB4C0C0CF1020CC6
:104AA00008BF4CEBD17C04E04FF0080C01E04FEA6A
:104AB000D17C0CEB4C0324FA03F404F00704B4F1AA
:104AC000040C06D20EEB840CBDE810404CF0010C37
:104AD0006047DFE80CF0070802024FF00040A0F545
:104AE000800010BD0846420018BFD2F1807288BF16
:104AF00000F0004010BDFF2141EAD050C0057047D2
:104B000051EA000C00F113801CF5000F58BFBCF5F2
:104B1000000F01D48142704707D711F5000F58BF2D
:104B200010F5000F15D481427047894270471CF57B
:104B3000000F04D5BCF5000FF7D5884270474FF041
:104B4000807C1CEB410F38BF1CEB400F01D2884228
:104B5000704780EA010081EA000180EA0100FFF766
:104B6000F8BE80F0004090EA010F7FF558AD81F06B
:104B7000004100F008B8000090EA010F48BF81F042
:104B800000413FF54CAD421A04D882F00042A0EB40
:104B9000020011444FEAD0524FF07F4C1CEA410F03
:104BA000A2EBD15318BF9CEA026F4AD04FF0004CE1
:104BB0004CEA00204CEA012121FA03FCB0EB0C0C7A
:104BC0000FD412F0FE0F36D05FEA4C001DD5001254
:104BD00040EBC25038BF70471CF03F0F18BF704702
:104BE0000BE0A2F101025FEA1C2040EBC25038BF8B
:104BF00070471CF07F0F18BF7047C3F12003994026
:104C000014BF401E20F00100704780084FEA1223B5
:104C100008BF7047B0FA80FCA2EB0C02CCF1280C64
:104C200060FA0CF093EA122F04BF00EBC2507047F9
:104C30004FEAC3707047130A5FEADC1008BF704781
:104C4000F6E79CEA026F04D010EA5C0F08BF002070
:104C5000704710B5FFF709FF40DFF63E81F00040D6
:104C6000704700000000000000000000000000008D
:104C700000000F3FE00010E0180010C00800208086
:104C80000C0041000600611C0200321401001E1CD1
:104C90007100040089800400A8800400888004005A
:104CA000A880061C888002147080011C01800F807F
:104CB00001003080020030C0060010400C001030AF
:104CC0007800081FC0000C30000007C00000000082
:104CD00000000000000000000000000000000000D4
:104CE00000000030000001FC7FE00307C0B0060CAC
:104CF00000107C3800184060000840C60008419E43
:104D00001F88611F308C3F11A0C4051F244401007F
:104D10002044010030640180122C00801828009E7D
:104D20000C2800D304281FDF07E830C600084060C5
:104D300000084020000830300018180C00300FC662
:104D400001C00073FF00001E000000000000000012
:104D500000000000000000000000F00000008F00D4
:104D60000000C0F00000A10F001C9204F03E8C0374
:104D70003FFF8C033FFF9204F03EA10F001CC0F0E8
:104D800000008F000000F0000000000000000000A4
:104D9000000007E0000004B0000004D80000044C4C
:104DA000000004640000043C0000040E0000040342
:104DB00000000403000004038000040280000403D8
:104DC000C0000401E0000400F00004007C000400C6
:104DD0000E000400030004FFF10004C399000481E5
:104DE000098004810880048108800481088004818E
:104DF000088004C3998004FFF1000400010004004E
:104E00000100040001000401FE0004030600040484
:104E10000C00040438000404E0000407800007F8D4
:104E2000000007E0000007F0000007F8000007FCA2
:104E3000000007FC000007FC000007FE000007FF61
:104E4000000007FF000007FF800007FF800007FF4A
:104E5000C00007FFE00007FFF00007FFFC0007FFAE
:104E6000FE0007FFFF0007FFFF0007FFFF0007FF2F
:104E7000FF8007FFFF8007FFFF8007FFFF8007FF1E
:104E8000FF8007FFFF8007FFFF0007FFFF0007FF0E
:104E9000FF0007FFFF0007FFFE0007FFFE0007FF00
:104EA000FC0007FFF80007FFE00007FF800007F89D
:104EB000000018344ABBDD522C1803030303030718
:104EC0000B1F2B3F577FABFFAB7F000000000000A4
:104ED0000000002F000000000700070000147F14EE
:104EE0007F1400242A7F2A120062640813230036EC
:104EF0004955225000000503000000001C2241001B
:104F0000000041221C000014083E08140008083E5E
:104F10000808000000A06000000808080808000059
:104F200060600000002010080402003E5149453E28
:104F30000000427F40000042615149460021414546
:104F40004B31001814127F10002745454539003CAD
:104F50004A4949300001710905030036494949367B
:104F600000064949291E000036360000000056366A
:104F7000000000081422410000141414141400004E
:104F80004122140800020151090600324959513EDC
:104F9000007C1211127C007F49494936003E414194
:104FA0004122007F4141221C007F49494941007F45
:104FB00009090901003E4149497A007F0808087F34
:104FC0000000417F4100002040413F01007F081464
:104FD0002241007F40404040007F020C027F007F62
:104FE0000408107F003E4141413E007F0909090647
:104FF000003E4151215E007F09192946004649497A
:1050000049310001017F0101003F4040403F001F46
:105010002040201F003F4038403F006314081463C5
:1050200000070870080700615149454300007F41AF
:10503000410000552A552A55000041417F000004D7
:105040000201020400404040404000000102040010
:10505000002054545478007F484444380038444475
:10506000442000384444487F003854545418000801
:105070007E0901020018A4A4A47C007F080404781F
:105080000000447D4000004080847D00007F1028A7
:1050900044000000417F4000007C04180478007C3C
:1050A0000804047800384444443800FC24242418BC
:1050B0000018242418FC007C0804040800485454F8
:1050C000542000043F444020003C4040207C001C11
:1050D0002040201C003C4030403C00442810284424
:1050E000001CA0A0A07C004464544C44141414146C
:1050F0001414000000000000000000000000000088
:105100000000000000F80000000000000033300044
:10511000000000100C06100C06000000000000004B
:10512000000040C07840C0784000043F04043F04C1
:105130000400007088FC08300000001820FF211EC9
:105140000000F008F000E018000000211C031E2100
:105150001E0000F00888700000001E21232419277B
:10516000211010160E0000000000000000000000DA
:105170000000000000E018040200000000071820F2
:10518000400000020418E000000000402018070062
:105190000000404080F0804040000202010F010208
:1051A0000200000000F0000000000101011F0101E9
:1051B0000100000000000000000080B0700000004E
:1051C00000000000000000000000000101010101DA
:1051D000010100000000000000000030300000006D
:1051E0000000000000008060180400601806010044
:1051F000000000E010080810E000000F1020201050
:105200000F00001010F8000000000020203F2020B8
:10521000000000700808088870000030282422214F
:105220003000003008888848300000182020201105
:105230000E000000C02010F8000000070424243FE6
:10524000240000F80888880808000019212020118F
:105250000E0000E0108888180000000F11202011B7
:105260000E0000380808C83808000000003F0000A1
:1052700000000070880808887000001C222121228C
:105280001C0000E010080810E0000000312222118C
:105290000F00000000C0C00000000000003030001F
:1052A000000000000080000000000000806000009E
:1052B00000000000804020100800000102040810D7
:1052C00020004040404040404000040404040404E6
:1052D0000400000810204080000000201008040294
:1052E0000100007048080808F00000000030360196
:1052F0000000C030C828E810E00007182724231455
:105300000B000000C038E0000000203C2302022710
:10531000382008F8888888700000203F202020115D
:105320000E00C03008080808380007182020201098
:10533000080008F808080810E000203F202020108E
:105340000F0008F88888E8081000203F202023205C
:10535000180008F88888E8081000203F20000300A3
:105360000000C03008080838000007182020221E5E
:10537000020008F808000008F808203F2101012178
:105380003F20000808F8080800000020203F2020E7
:10539000000000000808F8080800C08080807F0036
:1053A000000008F888C028180800203F200126388F
:1053B000200008F8080000000000203F20202020E6
:1053C000300008F8F800F8F80800203F003F003FE0
:1053D000200008F830C00008F808203F2000071817
:1053E0003F00E01008080810E0000F1020202010F7
:1053F0000F0008F808080808F000203F210101010B
:105400000000E01008080810E0000F1824243850AD
:105410004F0008F8888888887000203F2000030C1F
:105420003020007088080808380000382021212228
:105430001C00180808F8080818000000203F200089
:10544000000008F808000008F808001F20202020AD
:105450001F000878880000C83808000007380E01CF
:105460000000F80800F80008F800033C0700073CBB
:105470000300081868808068180820302C03032C6B
:1054800030200838C800C83808000000203F20003D
:10549000000010080808C8380800203826212020FD
:1054A0001800000000FE020202000000007F4040E1
:1054B0004000000C30C00000000000000001063871
:1054C000C00000020202FE000000004040407F00D9
:1054D00000000000040202020400000000000000BE
:1054E00000000000000000000000808080808080BC
:1054F00080800002020400000000000000000000A4
:1055000000000000808080800000001924222222F8
:105510003F2008F8008080000000003F112020118B
:105520000E000000008080800000000E112020206E
:105530001100000000808088F800000E112020106B
:105540003F200000808080800000001F2222222255
:105550001300008080F0888888180020203F2020D9
:1055600000000000808080808000006B9494949301
:10557000600008F8008080800000203F21000020AB
:105580003F2000809898000000000020203F20204D
:105590000000000000809898000000C08080807F9C
:1055A000000008F8000080808000203F24022D3099
:1055B0002000000808F8000000000020203F202004
:1055C00000008080808080808000203F20003F207D
:1055D000003F8080008080800000203F210000206C
:1055E0003F200000808080800000001F20202020BD
:1055F0001F00808000808000000080FFA12020111B
:105600000E000000008080808000000E112020A08D
:10561000FF80808080008080800020203F2120004B
:105620000100000080808080800000332424242436
:105630001900008080E0808000000000001F202012
:1056400000008080000000808000001F20202010CB
:105650003F20808080000080808000010E3008069E
:10566000010080800080008080800F300C030C30AF
:105670000F0000808000808080000020312E0E31DD
:105680002000808080000080808080818E701806DD
:10569000010000808080808080000021302C222149
:1056A000300000000000807C020200000000003F8B
:1056B000404000000000FF00000000000000FF006C
:1056C00000000002027C800000000040403F00001B
:1056D00000000006010102020404000000000000B6
:1056E0000000000000000000728A0E3C295C8F3C24
:1056F00062A1D63C4DF30E3DEA95323D8638563DCB
:1057000023DB793D4DF38E3D9CC4A03DEA95B23D2F
:10571000CA32C43D1904D63D67D5E73DB5A6F93D6B
:10572000CBA1053E728A0E3EE258173E5227203E1C
:10573000C3F5283E33C4313EA3923A3E1361433E43
:10574000832F4C3EBDE3543EF6975D3E6666663E53
:1057500069006F3EA2B4773E6E34803E6F81843E16
:1057600070CE883E711B8D3E7368913E74B5953E38
:105770005AF5993E3F359E3E2575A23E0BB5A63E95
:10578000D5E7AA3EA01AAF3E6A4DB33E3480B73E7D
:10579000E3A5BB3E92CBBF3E41F1C33ED509C83E17
:1057A0006822CC3EFB3AD03E8F53D43E075FD83EB2
:1057B0007F6ADC3EF775E03E5474E43EB072E83E2A
:1057C000F163EC3E4E62F03E8F53F43EB537F83E47
:1057D000DA1BFC3E0000003F85EB013F0AD7033F88
:1057E0008FC2053F87A7073F7E8C093FE86A0B3FC2
:1057F00052490D3FBB270F3F97FF103F73D7123F12
:10580000C1A8143F107A163FD044183F910F1A3F99
:1058100051DA1B3F849E1D3F295C1F3FCE19213F5B
:1058200073D7223F8A8E243F143F263F2BF6273F13
:1058300027A0293F234A2B3F1FF42C3F8D972E3F53
:10584000FB3A303FDCD7313F2F6E333F8104353F89
:10585000D49A363F0B24383FD0B3393F083D3B3F05
:10586000B1BF3C3FCD3B3E3F77BE3F3F0534413F5C
:1058700093A9423F9318443F9487453F07F0463F22
:105880007958483F5EBA493F431C4B3F0D714C3F2E
:1058900064CC4D3FA01A4F3FDC68503F17B7513FD3
:1058A00038F8523F5839543F787A553F0BB5563F38
:1058B00010E9573F8716593FFE435A3F76715B3FC9
:1058C000D1915C3F2DB25D3F89D25E3FC9E55F3F1C
:1058D00009F9603FBC05623F6F12633F9318643F54
:1058E0002B18653FC217663FCB10673F4703683FE1
:1058F000C3F5683F23DB693F11C76A3FE3A56B3FF0
:10590000B6846C3FFB5C6D3FB22E6E3F69006F3F0B
:1059100092CB6F3F2E90703F3C4E713F4A0C723FCE
:10592000CAC3723F4A7B733FAF25743F14D0743FA4
:10593000EB73753FC217763F7DAE763F3945773FB3
:1059400067D5773F9565783F35EF783F4772793F68
:10595000CCEE793FC3647A3FBADA7A3F234A7B3F81
:105960008CB97B3FDA1B7C3F287E7C3FE8D97C3FAB
:105970001B2F7D3F4D847D3F64CC7D3F7B147E3F5C
:10598000925C7E3F8D977E3F89D27E3FF7067F3FB8
:10599000D7347F3FB7627F3F7B837F3F40A47F3F09
:1059A00077BE7F3FAED87F3F57EC7F3FE5F27F3F2A
:1059B00072F97F3F0000803FD859000800000020A6
:1059C000000100006C010008D85A00080001002006
:1059D000480B00008801000800A24A0400000000F3
:1059E00000000000010203040607080900020CE0A1
:1059F00000CF949298222AF22AE6000004047F0045
:105A000045340F94641F207F444440000404FC4547
:105A100046242404807E2AAA2AFE000080829292D4
:105A2000929292FF9292929293828000040484E474
:105A30001C0405C63CA42424E4040400020100FF65
:105A4000008281462810294641808000100C4424A1
:105A5000140405060404142444140C0000404041BE
:105A60004141417F414141414040000000F80C0B61
:105A70000808F840308F080808F80000007F21214E
:105A800021217F0000004380403F00000000800093
:105A900000E002041800000040800000100C030029
:105AA000003F40404040407800010E0000000000F0
:105AB00000000000000000000000000000000000E6
:105AC00000000000000001020304010203040607B5
:085AD0000809020406080000A9
:0400000508000131BD
:00000001FF
